:10C000000000000000000000000000000000000030
:10C010000000000000000000000000000000000020
:10C020000000000000000000000000000000000010
:10C030000000000000000000000000000000000000
:10C0400000000000000000000000000000000000F0
:10C0500000000000000000000000000000000000E0
:10C0600000000000000000000000000000000000D0
:10C0700000000000000000000000000000000000C0
:10C0800000000000000000000000000000000000B0
:10C0900000000000000000000000000000000000A0
:10C0A0000000000000000000000000000000000090
:10C0B0000000000000000000000000000000000080
:10C0C0000000000000000000000000000000000070
:10C0D0000000000000000000000000000000000060
:10C0E0000000000000000000000000000000000050
:10C0F0000000000000000000000000000000000040
:10C10000000000000000000000000000000000002F
:10C11000000000000000000000000000000000001F
:10C12000000000000000000000000000000000000F
:10C1300000000000000000000000000000000000FF
:10C1400000000000000000000000000000000000EF
:10C1500000000000000000000000000000000000DF
:10C1600000000000000000000000000000000000CF
:10C1700000000000000000000000000000000000BF
:10C1800000000000000000000000000000000000AF
:10C19000000000000000000000000000000000009F
:10C1A000000000000000000000000000000000008F
:10C1B000000000000000000000000000000000007F
:10C1C000000000000000000000000000000000006F
:10C1D000000000000000000000000000000000005F
:10C1E000000000000000000000000000000000004F
:10C1F000000000000000000000000000000000003F
:10C20000C015002019C90000F7FD000005C9000095
:10C2100005C9000005C9000005C9000000000000B4
:10C22000000000000000000000000000CDCA000077
:10C2300005C900000000000099CA000005C90000FF
:10C2400059CC000059CC000059CC000059CC00005A
:10C2500059CC000059CC000059CC000059CC00004A
:10C2600059CC000059CC000059CC000059CC00003A
:10C2700059CC000059CC000059CC000059CC00002A
:10C2800059CC000059CC000059CC000059CC00001A
:10C2900059CC000059CC000059CC000059CC00000A
:10C2A00059CC000059CC000059CC000059CC0000FA
:10C2B00059CC000059CC000059CC000059CC0000EA
:10C2C00059CC000059CC000059CC000059CC0000DA
:0CC2D00059CC000059CC000059CC0000F3
:10C2DC00F8B5174D284603F0B7FF044630B32A696A
:10C2EC00A968136843F4003313600B68114A1121D9
:10C2FC0028469847002819DB0F4F104EAB684FF4B7
:10C30C0000315B692846984700280FDB84F0010454
:10C31C0014F0FF0414BF39463146094803F09CF968
:10C32C0000214FF4004002F08DFFE7E70020F8BD3C
:10C33C00F00501000100060060080100630801001F
:10C34C0067080100014B1B68184700BFC0040020A0
:10C35C00014B1860704700BFC004002030B585B099
:10C36C0004460D4610220021684604F002F902230F
:10C37C008DF802302A46044B01932146684603F09F
:10C38C007DF905B030BD00BF51C3000080B5054636
:10C39C000E461746984602F073FF034604F0F2F877
:10C3AC00DFF81890044649F80030424630463946CA
:10C3BC00A84754F8090000F017FB00BF0800000064
:10C3CC002DE9F047058B04462807904611D4022925
:10C3DC0005F0070540F0CC80204603F024FC78B132
:10C3EC000138218B042811D8DFE800F0C2106D85CC
:10C3FC00950001290CBF45F0100545F0200525835B
:10C40C0088F31188BFF36F8FBDE8F08701F0070A3E
:10C41C00AA4500F0A5800027B9463E46A368002B2C
:10C42C0000F0BC8041F00801218388F31188BFF330
:10C43C006F8FA168002900F0BA800D68002900F008
:10C44C00B680D1F80480334652462046C047002DB2
:10C45C0076D02B6829461D46F0E701F007035A1FDA
:10C46C00012A1BD8002221F00701062B276889B26C
:10C47C00C4E9002209D13B4603E0628B013262839E
:10C48C001B68002BF9D141F002012183204603F0F7
:10C49C00CAFB00287AD041F0200176E0042B0AD1A7
:10C4AC0021F0070189B22183204603F0BCFB10B1B7
:10C4BC0041F020012183218B01F0070AAA454FD0BE
:10C4CC000027B946AAE7236921F0070141F00601CC
:10C4DC00062DD3F8009021832DD1B9F1000F3FD058
:10C4EC0041F00801218388F31188BFF36F8F3A491B
:10C4FC002046C84729E021F00701236941F00401D7
:10C50C0089B2042DD3F804902183E6D000273E464F
:10C51C004FF0040A82E721F00701236941F005017D
:10C52C0089B2052DD3F808902183D6D000273E463A
:10C53C004FF0050A72E700273E464FF0060A6DE7FA
:10C54C002B4687E7B9F1000FD1D1EFF311882023E7
:10C55C0083F31288BFF36F8F238B23F0080323839D
:10C56C00258BEA062ED525F01003238305F007054D
:10C57C006669218B002EBFF670AF00232768C4E9D3
:10C58C00003321F0070141F001012183218B01F0DF
:10C59C00070AAA454FF000097FF440AF002F9CD04A
:10C5AC0041F00801218388F31188BFF36F8F002FAE
:10C5BC00C8D03D68394633465246204603F05FFBEF
:10C5CC002F46F4E7AB067FF51BAF25F02003238342
:10C5DC0005F0070500E700BFB7FC0000014B036046
:10C5EC00002070475807010030BFFFF7FDBF00BFA8
:10C5FC002DE9F0410B4EDFF8308006EB0807CC1B21
:10C60C00054632460949204603F0A5FFA0194246CB
:10C61C000021083C03F0ADFF2C6707F10800BDE8D2
:10C62C00F08100BF00000000040000005007010072
:10C63C00074A936893F90E10002907DB526993425D
:10C64C001FBF044A536843F080535360704700BFC8
:10C65C00C807002000ED00E070B5264B15469A6A1D
:10C66C0012F0100F9A6A14BF1124102412F0080F44
:10C67C009A6A18BF1224920706460AD5586B9A6A12
:10C68C00140634D519B19A6A22F080029A621324E6
:10C69C0001E06FF01500174B9A6A12F0010F9A6ABD
:10C6AC0018BF142412F0200F9A6A18BF1524D20652
:10C6BC0002D49B6A9B070AD50E4B5B68190506D5FD
:10C6CC00314600F079FA10B180F309880224094B45
:10C6DC009A6A920642BF5A6A22F400525A629A6AC5
:10C6EC0042F0FF029A6200232B70204670BD6FF05F
:10C6FC001500CCE700ED00E0134B9A6A12F0007FB6
:10C70C009A6A14BF1E201D2012F0807F9A6A18BFEF
:10C71C001F2012F4002F9A6A18BF212012F4802FC8
:10C72C009A6A18BF222012F4003F9A6A18BF23207D
:10C73C0012F4803F9A6A6FEA02426FEA12429A62DE
:10C74C0018BF2420704700BF00ED00E010B5194B56
:10C75C000246986A9C6A10F4805F14BF172016205A
:10C76C0014F4006F9C6A18BF1820A40509D5986BA7
:10C77C00986A000404D51AB19A6A22F400429A62AB
:10C78C0019200C4B9A6A12F4806F9A6A18BF1A20FF
:10C79C00D2050CD49B6A13F4005F18BF1C20054A09
:10C7AC00936A43F47F43936200230B7010BD1B20EC
:10C7BC00F5E700BF00ED00E0F0B5484B5B688BB0CF
:10C7CC000446C3F30803002585F31188BFF36F8F6C
:10C7DC0002F07F40B0F17F4F11D102F00C0008281D
:10C7EC000DD010074CBF0C4601250022033B8DF8E1
:10C7FC000720032B05D8DFE803F0246367602C4681
:10C80C00F3E700239DF80720CAB902AE04F1200714
:10C81C0020686168324603C20834BC421646F7D120
:10C82C00099A002D54D0C2F3080121B96FEA5222A3
:10C83C006FEA4222099202A9184603F0CCFA0BB017
:10C84C00F0BD264BDA6A9107DBD4DA6A002AD8DB12
:10C85C00DA6A5200D5D55A69A16942F480725A61DC
:10C86C00BFF34F8FBFF36F8F5A6931F8021C22F45C
:10C87C0080725A61BFF34F8FBFF36F8F4DF6027208
:10C88C0091420AD09A6AD2B24AB10DF10702012143
:10C89C002046FFF7E1FE0346B4E72368B2E79A6A45
:10C8AC0012F47F4F05D00DF107010120FFF74EFF69
:10C8BC00F1E79B6AB3F5803FA3D3FFF71DFFEAE7CF
:10C8CC000DF107020021E3E70DF107010020EDE770
:10C8DC0022F4FF7222F00102ACE700BF00ED00E091
:10C8EC00044B5A6942F010025A615A6922F008024C
:10C8FC005A61704700ED00E0EFF30880EFF3098117
:10C90C0001B57246FFF758FF01BD00BF002080F350
:10C91C001488BFF36F8F01F03DFA00200D490860B9
:10C92C00BFF34F8F0C4880F3088800F02BF82020C1
:10C93C0080F3118809484FF40461401880F309888A
:10C94C00EFF314800221084380F31488BFF36F8F38
:10C95C0000F0FAF894ED00E0C0150020000800206B
:10C96C000749D1F890200023C2F3072218469342BE
:10C97C0000DB7047C1F89830C1F8A0000133F6E72E
:10C98C0000ED00E008B572B6002383F31388FFF7BF
:10C99C00E7FF144B4FF0FF32C3F88020C3F884201C
:10C9AC00C3F88820C3F88C20C3F89020C3F89420D7
:10C9BC00C3F89820C3F89C20C3F88021C3F88421C5
:10C9CC00C3F88821C3F88C21C3F89021C3F89421B3
:10C9DC00C3F89821C3F89C2162B6BFF34F8FBFF305
:10C9EC006F8F08BD00E100E0084B9B6883420BD1C0
:10C9FC00EFF3058343B1064B5A6842F080525A60FC
:10CA0C005A6A22F400425A6203F007BDC80700209C
:10CA1C0000ED00E0094A93686FF00A019967084934
:10CA2C0058674B6843F080534B60002383F31188A5
:10CA3C00BFF36F8F9368986F704700BFC8070020D3
:10CA4C0000ED00E010B50446EFF31183202383F3CF
:10CA5C001288BFF36F8F0A4B58699860094B4FF0DF
:10CA6C0000625A60084B026F1A600022436F4267E3
:10CA7C0083F31188BFF36F8F00F006F9204610BDC9
:10CA8C00C807002000ED00E0200700200B498A6851
:10CA9C004FF030001044EFF3098C80E8F01F74461F
:10CAAC007046FFF7CFFFA64604498A6802F13000B2
:10CABC0090E8F01F8CF3098870470000C80700202D
:10CACC001EF0040F0CBFEFF30880EFF309808169AF
:10CADC0011F8021C0229FFD001B503F082F901BD47
:10CAEC0040B2002807DB044A4109012300F01F0073
:10CAFC00834042F82130704700E100E0054B4209C9
:10CB0C0000F01F0053F82220012303FA00F010401C
:10CB1C00704700BF00E100E040B20028A8BF00F160
:10CB2C00604001F10101B8BF064B4FEA4111ACBFA7
:10CB3C0000F5614000F00F00C9B2B4BF195480F881
:10CB4C000013704714ED00E00B4A08B50B4B22F0B4
:10CB5C007F029A60BFF34F8FBFF36F8FD3F888209B
:10CB6C0022F47002C3F8882001F0E4FF02F014FCF8
:10CB7C0000F060F802F022F800C2000000ED00E0C6
:10CB8C0042F8203C009B42F81C3C0A49019B42F8AD
:10CB9C00183C029B42F8143C21F001014FF08073C9
:10CBAC0042F8043C42F8081C0023203A0265436713
:10CBBC00704700BF99C30000094A0346906870B1E2
:10CBCC0013F1160F006E05D0A0F140029A4205D861
:10CBDC00834203D2814228BF002070470020704757
:10CBEC00C807002008B515460B4A0C4B9060026F25
:10CBFC001A600E4600F048F82C4686F309884FF070
:10CC0C000000074B984720464FF000014FF0000200
:10CC1C004FF00003034C2047C807002020070020DA
:10CC2C000DFE000099C30000014B10221A617047E1
:10CC3C0000ED00E0044800232021C2180133272B0B
:10CC4C0082F80013F9D1704700E100E008B5EFF36A
:10CC5C000583064A103B02EBC30152F833004968C6
:10CC6C008847BDE80840FFF7E3BC00BF1806010089
:10CC7C00024B034A0348012100F076B80000012062
:10CC8C000000002058070100026E054B403A1A6064
:10CC9C00044A4021C3E901121846012100F06EB884
:10CCAC002407002000000B15084AC2F898000B68F6
:10CCBC0023F01F03034343F01003C2F89C308B682E
:10CCCC0043F00103C2F8A030704700BF00ED00E054
:10CCDC002DE9F043DFF8608085B00E461F46044610
:10CCEC004FF00009B14523DA6068D8B13FB1411E5D
:10CCFC0008421BD11F2819D92368194216D1236861
:10CD0C00019303F0A0F8A36803430393D8F8905061
:10CD1C00C5F30725D0B2013DA84207D801A9FFF7FA
:10CD2C00C3FF421C09F101090C34DBE76FF015025B
:10CD3C00104605B0BDE8F08300ED00E0044B052281
:10CD4C00C3F89420BFF34F8FBFF36F8F704700BFB2
:10CD5C0000ED00E0BFF35F8F024B0022C3F894207C
:10CD6C00704700BF00ED00E010B5034C01232278A2
:10CD7C00FFF7AEFF207010BDF807002008B50B4A76
:10CD8C0000231278FFF7A4FF10F1160F07D0084A02
:10CD9C000021D2F89030C3F30723984200DB08BD82
:10CDAC00C2F89800C2F8A0100130F2E7F807002092
:10CDBC0000ED00E02DE9F043534B544CD3F8903088
:10CDCC002568C3F307239D4285B000F29A80FFF7D4
:10CDDC00C1FF00200C2685421AD14D4C4D4F2570B9
:10CDEC006846FFF7FBFBDFF82081DFF82C91064645
:10CDFC000025AE4213D1237843490020D1F890206E
:10CE0C00C2F30722934276DBFFF798FF002042E043
:10CE1C00616806FB0011FFF747FF0130DBE7009864
:10CE2C0000EB05114FEA051CCB683B40B3F5000F36
:10CE3C0048D00AD8B3F5001F30D0B3F5800F36D0E8
:10CE4C00B3F5801F10D00135D3E7B3F1807F42D00A
:10CE5C00B3F1007FF7D150F80C3088684A6802F0C3
:10CE6C00F2FF40F4802009E050F80C3088684A68E2
:10CE7C0002F0E9FF40F0885040F43020CDE9012366
:10CE8C000390D8F890302078C3F30723013B9842E5
:10CE9C002AD96FF0150005B0BDE8F08350F80C30BE
:10CEAC0088684A6802F0CFFF40EA0900E6E750F8CC
:10CEBC000C3088684A6802F0C6FF40F0E06040F42D
:10CECC000030DBE750F80C3088684A6802F0BBFF92
:10CEDC0040F08270D2E750F80C3088684A6802F053
:10CEEC00B2FF40F08870C9E701A9FFF7DDFE237897
:10CEFC0001332370A7E7C1F89830C1F8A0000133C3
:10CF0C007CE74FF0FF30C6E700ED00E0640701005E
:10CF1C00F80700200000F0FF0000081108B5024BD4
:10CF2C001B689847002008BD30070020034B044ABB
:10CF3C001860937843F00203937070473007002019
:10CF4C00C404002008B50649064821F00701C1F1C8
:10CF5C00005202F5803202F01AFE002008BD00BF1C
:10CF6C000716002034070020024B0122C3F840258D
:10CF7C000020704700E0014020B1034B800143F0DA
:10CF8C0001031847704700BF50070100084B70B5EC
:10CF9C00C31A0D4607499B100446594306484022C4
:10CFAC0002F06FFF2B4601462046BDE87040184743
:10CFBC0054070020B76DDBB6DC05010073B50C4CD3
:10CFCC000C4A4023041B00930D460B460A49A4103F
:10CFDC0061430646094802F080FF011E05DA30461F
:10CFEC002B4602B0BDE87040184702B070BD00BFC0
:10CFFC005407002051FF0000B76DDBB6DC050100C3
:10D00C00002270B5012104461046FFF785FD0F483C
:10D01C0001F0A8F80E4B984215D101F0B3F826692F
:10D02C000C49304602F04EFE00280BDB012535641E
:10D03C002469084904F11C0002F044FE002801DBBD
:10D04C00E564002070BD6FF00400FBE7B5D1000073
:10D05C000000AD0B880701001FB500220123CDE9AC
:10D06C000223094ACDF800D06B46CDF804D002F06B
:10D07C0062FF002805DB4FF480420023684601F074
:10D08C002FFE05B05DF804FB69FF000010B5074CDE
:10D09C0023782BB94FF4A57003F0D1F8012323703A
:10D0AC00BDE81040002001F07FB800BFF907002058
:10D0BC0010B5EFF31184202383F31288BFF36F8F25
:10D0CC00074A136823F00201DB07116002D4012028
:10D0DC0003F038F884F31188BFF36F8F10BD00BFD5
:10D0EC00A407002030B4104B0C2202FB0033014685
:10D0FC000020D3E90E529863EFF31180202484F3BF
:10D10C001288BFF36F8F1C6C04F0C00444F002044F
:10D11C001C6480F31188BFF36F8F1DB12B4603483D
:10D12C0030BC184730BC704754070020DC050100A8
:10D13C0010B4EFF31182202383F31288BFF36F8FA7
:10D14C001748016841F002040460C80707D482F351
:10D15C001188BFF36F8F012010BC01F025B84FF080
:10D16C008041D1F80C04D1F80C14C907EFD5EFF3BA
:10D17C00118083F31288BFF36F8F0A490B6C03F095
:10D18C00C00343F002030B6480F31188BFF36F8F6D
:10D19C0082F31188BFF36F8F002010BCFFF7A2BF82
:10D1AC00A40700205407002010B1012804D07047B8
:10D1BC00034B1B6C5B0701D1FFF794BF704700BF9B
:10D1CC00540700202DE9F0413849BFF35B8F074627
:10D1DC00012251E8003F41E800200028F9D1BFF3BB
:10D1EC005B8F33B9324933484B60CB608A6002F0B5
:10D1FC007CFD7B1E012B2BD8012F07D14FF08043D8
:10D20C00D3F81C3403F00303012B21D003F05AF89C
:10D21C000546F8B9284B1B78E3B14FF08043022246
:10D22C00C3F808230646DFF894804FF08044D4F806
:10D23C001824D4F81834D20315D503F00303012BAA
:10D24C0001D0012F0FD155B386F31188BFF36F8F27
:10D25C00BDE8F081EFF31186202383F31288BFF32E
:10D26C006F8F0125DFE7ADB1304602F0DDFDD4F85C
:10D27C001835002BDBD1D4F80421002AD7D0C4F800
:10D28C000431D4F804310123C4F81835C8F88031BE
:10D29C00A360CCE70021212001F0D4FFE7E74FF099
:10D2AC0080430222C3F80423D2E700BF50070020BA
:10D2BC004007002070070020FC07002000E100E080
:10D2CC0008B5074802F0C0FF38B10648FFF72EFE3C
:10D2DC000448FFF73DF8002008BD6FF01200FBE793
:10D2EC0004060100F5D200000A2838B5074D0446A3
:10D2FC0004D1AB680D215B6828469847AB6803489E
:10D30C005B68E1B29847204638BD00BF04060100B7
:10D31C0038B545682B69B3B11035284601F030FAA1
:10D32C00044680B90146284601F0F6F9084B9842AC
:10D33C000BD108492246284601F0D6F92246052190
:10D34C000620FFF7E9FB002038BD6FF00400FBE777
:10D35C000000AD0B65D30000430970B507D10B4B32
:10D36C00596821B101250C68094E854001B970BD81
:10D37C008A682A4002D04B68304698471CB1236813
:10D38C0021461C46F2E72346FAE700BFA807002017
:10D39C00F00501002DE9F043476840F20636D0064F
:10D3AC003B7B87B002EA060654BFC2F34010032051
:10D3BC0001F01F05B6F5837F144645EA43158DF839
:10D3CC00030042D00FD8062E18D007D8B6B1022EC3
:10D3DC003DD06FF0150007B0BDE8F083B6F5807F47
:10D3EC00F7D101260AE040F20222964231D0B6F57E
:10D3FC00407F30D0B6F5007FEBD1022622032CD52E
:10D40C007A6801238B40C2F808353B696BBB05F089
:10D41C001F026D0976D1920002F1A04284F4803192
:10D42C00D2F80037C1F30041C4F3404423F4E16364
:10D43C0044EA410423F007031C4344EA800444EA11
:10D44C000624C2F800470020C5E70726D6E70426C5
:10D45C00D4E70526D2E70326D0E7630341BF0123B7
:10D46C007A688B40C2F80C35CFE710370DF1020209
:10D47C002946384601F03EF914F4403F80460CD161
:10D48C002946384602F0D0FE214B9845DBD19DF859
:10D49C000210384601F07EF9D5E701AB4FF00009D8
:10D4AC0003AA29463846CDE90439CDE90199CDF8CE
:10D4BC000C9000F0F3FF164B98428AD114F4003311
:10D4CC0015D09DF803308DF80E3084F48034C4F3FD
:10D4DC0000444B4603AA294638468DF80C608DF85B
:10D4EC000D4001F08BF80A4B9842CDD071E7CDE995
:10D4FC00043303AA0DF1030329463846039300F0C5
:10D50C00CDFFF0E702F5E07253F82230FFDE00BFEA
:10D51C000000AD0BF0B54068057B01F01F0444EA38
:10D52C004514056987B0002D60D0B2F5001F00F1DD
:10D53C00100506D12146284602F078FE002007B0DF
:10D54C00F0BD01AE0027B2F5800F0197776038D19E
:10D55C00B3F1007F14BF052304238DF8043000239E
:10D56C00CDE904630393836823FA01F111F00101FF
:10D57C0019D1B2F1A07F16D104F01F03620903F593
:10D58C00E07339D14FF0A04252F82330DB070AD4B4
:10D59C000DF1030632462146284601F0ABF8184B34
:10D5AC00984219D0029603AA2146284600F076FF2D
:10D5BC00144B98421DD101222146284601F0F6F861
:10D5CC00BCE7B3F1C06F05D0B3F1007F14BF0123EA
:10D5DC000223C2E70323C0E73146284601F0E0F8F6
:10D5EC00084B9842DED06FF00B00A8E76FF0850077
:10D5FC00A5E76FF01500A2E751F82330FFDE00BF5E
:10D60C000400AD0B0000AD0B2DE9F0435B4E5C4FFD
:10D61C0000EB810140F2FF15814202D10020BDE8F0
:10D62C00F083046814F4804FC4F3C32CC4F30803D0
:10D63C0040F09080A40C16F80CC0AB4208BF4FF021
:10D64C00FF33192C00F28980DFE804F00D13191C4C
:10D65C001F251C87878787366387878787878787F8
:10D66C008787667B7E81C2F80C355C1C5ED10430EA
:10D67C00D2E7C2F814355C1CF9D000245FE0C2F884
:10D68C000835F2E7C2F81035F5E75C1CC2F808352E
:10D69C00EDD0002404E05C1CC2F80C35E7D001246A
:10D6AC005FEA531E5CD14FF001084FF0A04E08FA10
:10D6BC0003F9CEF80C950AE0C2F80835BCF1000F5E
:10D6CC00D9D15C1CD3D00024A0464FF0060CD0F866
:10D6DC00009009F4004EBEF1000F1CBF4FF0000883
:10D6EC00012403F01F0E5B0942D14FEA8E0E0EF19E
:10D6FC00A04EC9F34129DEF800373B4043EA8903C9
:10D70C0043EA0C2343EA080343EA4403CEF8003708
:10D71C00ADE7C2F80C35D1E7C2F86035B3F1FF3F85
:10D72C000468A4D0C4F30044002CB8D05C091BD10D
:10D73C0001244FF0A04E04FA03F8CEF80885A04659
:10D74C00C5E7C2F86435E9E7C2F86835E6E7C2F820
:10D75C006C35E3E76FF0150061E76FF085005EE76D
:10D76C000023C3F80C35FFDE0023C3F80835FAE7B5
:10D77C000EF5E07E002353F82E30F4E7A2080100EA
:10D78C00F0F8FCFFF7B50746002201210220FFF755
:10D79C00C3F90220FFF7A4F97D683E692C680021CB
:10D7AC00C4F8001537602F6901AA384602F02EFC28
:10D7BC0000284CDB019B3A6819791868FFF724FFA5
:10D7CC00002844DB6B69C4F824356B7E2A7E134336
:10D7DC00C4F86C35AB68990712D506F1100001F04E
:10D7EC00DFF81D4B984234D1307C04F10C0204F567
:10D7FC00907102F09DFC337C0120984000F04AFCB3
:10D80C000823C4F800352B7B53B9C4F81031D4F875
:10D81C001031F368C4F834350123C4F8383523606B
:10D82C00AB689A075CBF4FF48073C4F80433AB68E1
:10D83C00DB0644BF4FF48003C4F80433B368C4F868
:10D84C00443500200123C4F84805A360E36003B00D
:10D85C00F0BD6FF00400FAE70000AD0B2DE9F041CC
:10D86C00044607690D4602F02DFD4FF02008B0B9B3
:10D87C002C4B1B789BB16426606802F0F5FBF0B969
:10D88C00012002F053FC013EF6D10021212001F0D1
:10D89C00D9FCF0E786F31188BFF36F8FF5E7EFF350
:10D8AC001186314688F31288BFF36F8F606802F0DF
:10D8BC00DBFB80B986F31188BFF36F8FEFE7EFF3D3
:10D8CC001186314688F31288BFF36F8F606802F0BF
:10D8DC00CBFB0028DED0BB681D706268B86813688B
:10D8EC00C3F844050120C3F848050020C3F8200103
:10D8FC00D3F82051C3F858019268D3F85801D206D6
:10D90C0008D5626812680820C2F800054FF480023E
:10D91C00C3F8042301229A6081F31188BFF36F8F3F
:10D92C00BDE8F081FC07002070B5012383400E4A4E
:10D93C00BFF35B8FDC4352E8001F01EA040542E8A9
:10D94C000056002EF7D1BFF35B8F4FF4803282402C
:10D95C000648C0F80823BFF35F8FBFF36F8F0B42ED
:10D96C0014BF0120002070BDB8070020001001403A
:10D97C0070B40E49D1E90034D01AC31844F1000434
:10D98C0022F07F46C1E90034A6F50013B3F5400F31
:10D99C0009D2074B1B681A0A1B069C19054B42F14E
:10D9AC000005C3E9004570BC01F0D0BD7005002036
:10D9BC00BC0700207805002011B3BFF35B8F012357
:10D9CC00104A834052E800CF4CEA030C42E800C1F5
:10D9DC000029F7D1BFF35B8F0B4A4FF480338340A0
:10D9EC00C2F80433094BBFF35B8F1B68BFF35B8F2B
:10D9FC00C340DB0742BF064B4FF40032C3F8002193
:10DA0C00704700BFB807002000100140B407002089
:10DA1C0000E100E00D4B1868010A0006BFF35F8FB0
:10DA2C000B4BD3F80435181841F10001B3F5801FE6
:10DA3C000AD2084BD3E90023904271EB030303D2C3
:10DA4C0010F1807041F10001704700BFBC0700204D
:10DA5C0000100140780500202DE9F04F85B01646E6
:10DA6C001F469DF840A00446FFF75EFF0190FFF7AC
:10DA7C00D1FFB04271EB070354D23E4B301A67EB27
:10DA8C000101984271F100014FD23B4B03EB04139F
:10DA9C00D3E902239F4208BF96425ED037494FF428
:10DAAC00803804F1500508FA04F8AD00C1F8488339
:10DABC002046ADB202F01FFB26F07F4B05F18045EE
:10DACC0004F5A87305F58835DC464FF0030902937D
:10DADC00029A2CF07F4341F82230C1F84483D1F8EC
:10DAEC000435274A6FF00200C01A604420F07F40D2
:10DAFC00904232D9286868B1D1F804350393A3EB6E
:10DB0C000B0020F07F40B0F5000F26D9204602F024
:10DB1C00F2FA039BBAF1000F07D109EB030C09F1E0
:10DB2C000109D5E7BAF1000F09D06FF015052046B1
:10DB3C000199FFF741FF284605B0BDE8F08F01239E
:10DB4C00104ABFF35B8FA34052E8000F184342E822
:10DB5C0000010029F8D1BFF35B8F07490E98230110
:10DB6C0001EB0412C8500F9B5360C2E902670025F9
:10DB7C00DDE700BF010080006005002000100140BF
:10DB8C00FDFF7F00B40700207FB51C4C1C4BC4F874
:10DB9C000833C4F848331B4B00254FF0FF304FF0CF
:10DBAC00FF31C4F80855C3E902014FF48033C4F8BF
:10DBBC000433154B02264FF400320121C4F80463E0
:10DBCC001120C3F880212A46FEF7A6FF1120FEF78C
:10DBDC0087FF0E4A0123A360236013600C4B0D4A90
:10DBEC000093CDE9015500232846FFF735FF304659
:10DBFC00FFF7E8FA284604B070BD00BF00100140E2
:10DC0C0003000F006005002000E100E0B8070020D1
:10DC1C007DD90000FFFF7F002DE9F7432F4CD4F88E
:10DC2C00043399070BD5D4F8043143B12C4A0023A3
:10DC3C00C4F80431D4F80431136801331360D4F8F8
:10DC4C000433DA0329D5BFF35B8F264B53E8002F3F
:10DC5C0022F0010143E800100028F7D1BFF35B8FDD
:10DC6C00D30702D4D4F84031BBB10025C4F84051DD
:10DC7C00D4F84031FFF7CEFEEFF31182202383F36B
:10DC8C001288BFF36F8F184BD3E90267B042B941CA
:10DC9C0006D282F31188BFF36F8F03B0BDE8F08317
:10DCAC004FF0FF384FF0FF39C3E90289D3E9001078
:10DCBC001D604FF48033C4F84833C4F84051D4F895
:10DCCC00403182F31188BFF36F8F0029E5D00090AB
:10DCDC0032463B4628468847DFE700BF001001402C
:10DCEC00BC070020B40700206005002030B5431CA1
:10DCFC00124C85B005D08442A8BF0446012CB8BF95
:10DD0C000124FFF787FE0E4B0C4DD3E90013401A8C
:10DD1C00B0F5000F10D22218AA4228BF2A4652187A
:10DD2C004FF0000007490091CDE9010043F10003D9
:10DD3C00FFF792FE05B030BD2A46F0E7FFFF7F00EB
:10DD4C00700500207DD9000008B5FFF763FE024B7B
:10DD5C001B68C01A08BD00BF700500204FF070434F
:10DD6C0093F8E02F062A09D1D3F8E83FC3F3031345
:10DD7C00033B042B02D8024AD05C7047002070474A
:10DD8C00C7080100024AD2F80034002BFBD07047C0
:10DD9C0000E0014010B502F0BAF940B14FF08053E9
:10DDAC008E4AD3F82433C3F30423C2F84035FFF76B
:10DDBC00D5FF10B18A4B8B4A5A6702F0A8F948B1CB
:10DDCC004FF080534FF08042D3F84432C3F34233C8
:10DDDC00C2F83C35FFF7C2FF30B1834AD2F8FC30B1
:10DDEC0023F08073C2F8FC3002F091F940B14FF08F
:10DDFC0080430022C3F80C21C3F81021C3F8382546
:10DE0C00FFF7ACFF20B14FF080430322C3F8A025ED
:10DE1C00FFF7A4FF60B1754B0522C3F81026012251
:10DE2C00C3F888260022C3F818263F22C3F814260C
:10DE3C004FF08053D3F83021511C09BF4FF0704381
:10DE4C00D3F8343193F8E02FD3F8E83F08BFC3F38D
:10DE5C000313062A4DD1033B042B03D8644AD35C2D
:10DE6C00002B46D04FF08052624BD2F80414C3F80A
:10DE7C002015D2F80814C3F82415D2F80C14C3F8E2
:10DE8C002815D2F81014C3F82C15D2F81414C3F8B2
:10DE9C003015D2F81814C3F83415D2F81C14C3F882
:10DEAC004015D2F82014C3F84415D2F82414C3F842
:10DEBC004815D2F82814C3F84C15D2F82C14C3F812
:10DECC005015D2F83014C3F85415D2F83414C3F8E2
:10DEDC006015D2F83814C3F86415D2F83C14C3F8A2
:10DEEC006815D2F84014C3F86C15D2F84424C3F862
:10DEFC00702502F00CF948B14FF080534FF080427E
:10DF0C00D3F8583203F04F03C2F8E43E02F0FFF8A6
:10DF1C0048B14FF08043D3F80024D20744BF6FF0D0
:10DF2C000102C3F800244FF08053D3F83021062AA5
:10DF3C0026D1D3F83431033B042B02D82E4AD35CC0
:10DF4C0063B12E4AD2F83C3743F48063C2F83C37B5
:10DF5C004FF08053D3F83031062B11D14FF0805352
:10DF6C00D3F83431033B042B02D8254AD35C3BB1A4
:10DF7C004FF01023D3F808224FF08043C3F85825F4
:10DF8C004FF01023D3F80022002A03DBD3F804321D
:10DF9C00002B22DA1B4901234FF01020C1F8043565
:10DFAC001524FFF7EFFEC0F80042FFF7EBFEC0F8B8
:10DFBC000442FFF7E7FE0023C1F80435FFF7E2FE49
:10DFCC00BFF34F8F0849104BCA6802F4E062134349
:10DFDC00CB60BFF34F8F00BFFDE710BD0030014099
:10DFEC0000C007400DF0ADBA00ED00E0005000405D
:10DFFC00C208010000C00040BD0801000010004034
:10E00C00B808010000E001400400FA0530B50468CE
:10E01C00CCB1BFF35B8FB4FA84F3C3F11F03DBB253
:10E02C0001229A4024EA020250E8005FA54204D182
:10E03C0040E8002CBCF1000FF6D1BFF35B8FE6D1AA
:10E04C0002480B7030BD0248FCE700BF0000AD0B6E
:10E05C000200AD0B10B50368CB40DB0714D40123D1
:10E06C008B400268BFF35B8F43EA020150E8004F1C
:10E07C00944204D140E8001CBCF1000FF6D1BFF370
:10E08C005B8FEED1014810BD0148FCE70000AD0BE1
:10E09C000400AD0B014BC3F80405704700F00140C0
:10E0AC00F7B5044618B1012823D003B0F0BD4FF0EA
:10E0BC0080430222C3F808230122DA60C3F804016A
:10E0CC00D3F80431064601238DF8073042F210755F
:10E0DC004FF08047D4B1012CE7D1D7F80C3403F4BE
:10E0EC008033AEBB83B3012002F020F8013DF4D1A4
:10E0FC002AE04FF080430022C3F808035860C3F8AD
:10E10C000021D3F800310DF10706DCE7D7F81834FD
:10E11C0003F480333EB9002BC7D0012002F006F87F
:10E12C00013DF3D1C1E7D7F8182402F003023260A5
:10E13C00002BBAD09DF80700012803D101F0F6FF9F
:10E14C00013DC7D1012CB0D1054B00225A71ACE76F
:10E15C00D7F80C2402F001023270002BEAD1F3E75D
:10E16C00C0070020044B1A7922B9012218609A804A
:10E17C000248704702487047C00700200000AD0BF2
:10E18C000C00AD0B08B5074B1B682BB10020FEF73C
:10E19C00B5FC08B9FEF7A4FC4FF080430022C3F88D
:10E1AC00182508BDC007002038B5B0B1012855D1DD
:10E1BC004FF080420023C2F80031D2F80021304ADF
:10E1CC0003F18043012119602E4B1B68002B50D0AA
:10E1DC004FF08043C3F8040340E04FF08043D3F882
:10E1EC001814D3F81824C8032AD502F00303012B02
:10E1FC0004D013B10020FFF753FF00234FF08042EF
:10E20C00C2F818350023C2F80431D2F804311E4A82
:10E21C00D2F8FC0040F08073C2F8FC301B4B1C6839
:10E22C0044F0010119605D685968491BB1F50A5F3A
:10E23C00FAD31C60C2F8FC000823154A0220BFE781
:10E24C00D3F81424D107D8D5D3F81C249207D1D4F1
:10E25C000C4A12681AB10222C3F8042338BDD3F851
:10E26C000421002AFBD00022C3F80421D3F8043186
:10E27C00F4E71368002BFCD0002313601368EDE760
:10E28C0000010040C007002000ED00E0001000E09D
:10E29C000401004010B54FF08043D3F800216AB15F
:10E2AC000022C3F80021D3F800210122C3F808236F
:10E2BC00114B587910B95A711B6898474FF080432D
:10E2CC00D3F8042172B10022C3F80421D3F804213D
:10E2DC00D3F81824D3F81824920704D10122C3F8D8
:10E2EC0018259A6010BD0222C3F80823024BBDE822
:10E2FC0010401B6801201847C007002070B500F1C2
:10E30C0008030C4C34F81330DA0505460E4607D5D5
:10E31C00C3F3432304EBC30254F8333052689847D9
:10E32C00A3682BB1E26831462846BDE87040184717
:10E33C0070BD00BFE804002010B4C0B2114A083010
:10E34C0032F81030D9051BD5C3F3432123F4F8530D
:10E35C0022F8103002F10E04002034F8023F13F4BE
:10E36C00807F03D0C3F34323994209D00130202886
:10E37C00F3D1002342F83130034810BCFFF76ABEDA
:10E38C0010BC7047E804002040050020F0B505469D
:10E39C0000200446012607468C420BD1114BD3F8C2
:10E3AC007C2132B10022C3F87C21D3F87C3140F0BF
:10E3BC000040F0BDE3B29B0003F580729B0806FAA7
:10E3CC0003F31D420BD002F1804202F5C042D2F899
:10E3DC0000C0BCF1000F02D0176012681843013462
:10E3EC00DAE700BF00600040CBB2024608330846B3
:10E3FC000C4931F81330990611D599070FD41068D0
:10E40C005B0B01219940C0F80813126802EB8303DF
:10E41C00D3F8102522F00302C3F810257047002111
:10E42C0001F0E5BEE8040020F7B5CDB2174E083573
:10E43C00074636F81530DB070C4624D5FFF7D4FF1A
:10E44C0036F815309A0606D55B0B3A6803F5A273BD
:10E45C00002142F823102046FFF76EFF002301A88D
:10E46C0026F81530019401F06FFE019B00EB830040
:10E47C00074BD0F80027134043F00203C0F80037D5
:10E48C00044803B0F0BD0448FBE700BFE8040020DB
:10E49C00F0F8FCFF0000AD0B0400AD0B2DE9FF41C3
:10E4AC00136807460C461546FBB1CEB2DFF83C812B
:10E4BC00083638F8162002F02202222A22D0002236
:10E4CC00CDE900228DF80E208DF80F200DF10E01F4
:10E4DC000DF10F02204601F041FE38F8163023F002
:10E4EC00020343F0010328F816306B684BB393F822
:10E4FC0000C05A683D4EE3B2083336F81310880753
:10E50C0002D5B2B13A481FE021F02001C904C90C70
:10E51C0026F813106AB1BCF1030FF3D86A68386897
:10E52C0052681278BCF1000F11D102F5A27240F8BA
:10E53C0022C036F8132022F01C0242EA8C0226F884
:10E54C001320AB6843BB2B4804B0BDE8F08100EB53
:10E55C00820041EA4231D0F810E52EF0030EC0F8EB
:10E56C0010E53F6807EB820741F02001D7F8100552
:10E57C0026F8131020F4473020F44070C7F810052B
:10E58C002002D7F810E500F4F85040EA0C4040EABD
:10E59C000E00C7F81005CCE7D3E900672046FFF75B
:10E5AC00CBFE002ECFD0114DD5E90023964203D1DE
:10E5BC009F4201D1002209E00F480DF10F01FFF736
:10E5CC0025FD0C4B9842BFD19DF80F2045F83260C9
:10E5DC00E4B205EBC20308345F6035F8143043EA4B
:10E5EC00422343F4807325F81430ACE7E804002090
:10E5FC000400AD0B0000AD0B400500202DE9FF41E0
:10E60C0007460C461E4612B3CDB2DFF8D080083553
:10E61C0038F81530980701D4990621D413F01C0F43
:10E62C0002D05378012B1BD001238DF80F3000231F
:10E63C00CDE900230DF10F01931C2046013201F0AE
:10E64C008DFD38F8153043F0030328F81530002EF3
:10E65C0042D0E1B2214D083135F81120930703D493
:10E66C001F4804B0BDE8F08196F800E0D7F800C070
:10E67C0022F020020EF5A270D2040023D20C4CF82A
:10E68C00203025F8112096F801C0BCF1000F23D0E2
:10E69C003868B67800EB8E004FEA0C4CD0F8103589
:10E6AC0023F4981323F4F853C0F81035230203F421
:10E6BC00F8530CF4403C3605D0F8107543EA0C03C3
:10E6CC0006F4801642EA4E32334342F020023B43BA
:10E6DC0025F81120C0F810350248C2E7E8040020E4
:10E6EC000400AD0B0000AD0B014BC3E902127047E7
:10E6FC00E8040020C9B20831044B33F811309906F4
:10E70C0043BF5B0B0248137002487047E8040020BB
:10E71C000000AD0B0400AD0B70B5164D95F86040C4
:10E72C0006462CBB2146402205F1100001F021FFCA
:10E73C0030682E6D21468E420ED10023C0F87C31FC
:10E74C00D0F87C3140F30730FEF7CAF901230A48B0
:10E75C0085F86030AB6570BDCBB29B0003F5807261
:10E76C007C2B08BF845001F1010108BF8358E2E7FC
:10E77C000248F0E7E80400200000AD0B0C00AD0BE4
:10E78C00034B93F86000003818BF0120704700BF9E
:10E79C00E80400200148FFF75DBC00BF3C050020E9
:10E7AC000148FFF733BC00BF3C05002073B503687C
:10E7BC000C46D3F804130029A4BF4FF00041C3F852
:10E7CC000413E3B21D49083331F8133099061AD5F6
:10E7DC0013F0020617D15B0B9C00056804F58071E1
:10E7EC006E50695801682144D1F8104544F0010479
:10E7FC00C1F810452AB10168012202FA03F3C1F8ED
:10E80C00043302B070BDC3F38203042B12D0052B6A
:10E81C0012D001A8019401F097FC019AD0F81035A0
:10E82C00D34003F00103991C204602B0BDE87040B0
:10E83C0001F0DDBC0321F7E70221F5E7E804002035
:10E84C002DE9F347544B554FD3F80403396DC0B23F
:10E85C0040F00040FFF79AFD051E18DA0023F96D11
:10E86C000093684601F0D2FC4FF0010897F85C3039
:10E87C00DA075AD4396D4FF00040FFF787FDF96D78
:10E88C00684601F0C3FC0028F0D125F000450124B6
:10E89C00002D69D102B0BDE8F08794FAA4F4B4FA63
:10E8AC0084F4E00804F1080304F0070237F813902D
:10E8BC001DF80030019408FA02F223EA02030DF865
:10E8CC00003001A801F040FC019B03F5E0734FEA16
:10E8DC00990150F82360C9F3820A4B07D146C6F35D
:10E8EC00014626D520465146FFF708FD01A80194A4
:10E8FC0001F02AFC019B03F5E073F6B250F82330CB
:10E90C00C3F301439E4207D10021204601F06FFC66
:10E91C003146204601F06BFC01A8019401F014FC77
:10E92C00019B08FA03F3C0F82035009C002CB4D1ED
:10E93C00A0E7022E0CD10321204601F058FC0AF06E
:10E94C000503012BE8D149462046FFF7D7FCE3E746
:10E95C000221204601F04BFCBAF1030FF3D0032E39
:10E96C00DAD1BAF1020FEDE795FAA5F3B3FA83F316
:10E97C0004FA03F29B0003F1804303F5C04325EA3C
:10E98C000205D3F81005D3F81015C0F30420C1F319
:10E99C000141FFF7B3FC7BE700600040E804002076
:10E9AC0001460148FFF732BB4C05002008B5144B5B
:10E9BC00A8220021184601F0DCFD03220261114956
:10E9CC004261114A8161C2614FF48062026200228D
:10E9DC0082624262C26201660C4941661021816604
:10E9EC0003460267C2664267BFF35F8F084911F89E
:10E9FC00010D98540132102AF9D1BFF35F8F08BD75
:10EA0C0010040020CC0801001000002000000020A1
:10EA1C00E508010038B5EFF31185202383F3128844
:10EA2C00BFF36F8F064B9C6801F021FC85F31188B6
:10EA3C00BFF36F8F2046BDE83840FDF7D5BF00BF50
:10EA4C00C807002038B5094B53F82040013053F863
:10EA5C002050A54200D838BD636823B1204601F090
:10EA6C0009FC0834F5E723689847FAE748080100E1
:10EA7C0070B52B4B2B4C2C4D012286B003201A70F9
:10EA8C00FFF7E0FF00F0E2FD01F010FC0420FFF7BF
:10EA9C00D9FF2646AE4204F1300410D300F014FB2B
:10EAAC00204C224EAC4226D300F022FBFDF710FC8A
:10EABC001F4A137B23F00103137306B070BD54F887
:10EACC000C3C059354F8103C049354F8143C0393F9
:10EADC0054F8183C029354F81C3C019354F8203C15
:10EAEC00009354E90A2354E90C0100F01FF954F87F
:10EAFC00303C5E65CDE7D4E90A23B3F1FF3F08BF94
:10EB0C00B2F1FF3F05D052EA0301206803D101F0B6
:10EB1C00DFFB3034C6E73146183000F09DFCF8E7D7
:10EB2C00FC0700205007010050070100E903010019
:10EB3C000006002008B50348034A0021121A01F010
:10EB4C00B1FB08BD600500200008002070B5002353
:10EB5C0086B00122CDE90423134E144D01930F22EC
:10EB6C00CDE902321249142303FB005506EBC01603
:10EB7C0004464FF4C07000FB04110E4B00954FF48B
:10EB8C00A072304600F0D2F8737B0B4AEE6023F093
:10EB9C00040373734FF4046304FB033313442C74A6
:10EBAC006B6006B070BD00BF80050020C807002058
:10EBBC0040100020BB02010000080020BFB500205F
:10EBCC00FFF740FF2C4B83F308882C4D2C4E6B69C0
:10EBDC002C4F43F400736B610024E02385F8223042
:10EBEC00EC772C766C76AC7685F820406B6A43F427
:10EBFC00E0236B6285F82340FDF772FEFEF714F8F4
:10EC0C004FF0FF33AB62EB62FEF7D4F8FEF730F84F
:10EC1C001D4BB36040F201129A81C3E91844DC66C3
:10EC2C0001F011FB0120FFF70DFF0220174DFFF73C
:10EC3C0009FF00F07DFA164B756105930123154908
:10EC4C000094CDE903434FF480623B46CDE9014487
:10EC5C00284600F06BF86A7B064622F00402284630
:10EC6C006A7301F071FB2046FFF770FF3A4631469C
:10EC7C002846FDF7B7FF00BF4010002000ED00E074
:10EC8C00C80700207DEA0000800600200006002056
:10EC9C00E6080100C011002038B50446EFF31185D9
:10ECAC00202383F31288BFF36F8F01F09BFB48B1D5
:10ECBC000022826701F048FB29460848BDE838402D
:10ECCC0000F0BEB9D4E902329A4218BF0133A360F6
:10ECDC0085F31188BFF36F8F38BD00BFFD0700208F
:10ECEC0013B5EFF31181202484F31288BFF36F8FD7
:10ECFC00846844B1013C846081F31188BFF36F8F49
:10ED0C00002002B010BD52EA030406D181F3118831
:10ED1C00BFF36F8F6FF00F00F3E7CDE900230246CE
:10ED2C00014800F061F9ECE7FD0700202DE9F04304
:10ED3C00073285B022F007020E461F461099017368
:10ED4C0000F158037F32C0E916330446002322F049
:10ED5C003F020421836041733F2A0F98A073C4E9DA
:10ED6C000633E37306F14009A2F1400805D883F39A
:10ED7C001188BFF36F8F084602DFB518294620466D
:10ED8C00FDF736FC07300E9B20F00700A066C4E9A7
:10ED9C00189802930D9B01932D1A0C9B00932A46F5
:10EDAC003B4631462046FDF7EBFE00236365044BE2
:10EDBC009B6803B1DB6EE366284605B0BDE8F083C3
:10EDCC00C807002038B50D4D2B4653F8184F9C4200
:10EDDC0000D004B9EC68AB6838B95A7BD20604D1C0
:10EDEC00A26912B9DA897F2A05D89C4202D0204642
:10EDFC0000F07AFA23466B6138BD00BFC8070020CB
:10EE0C0008B590F90D20437B002A014604DA03F083
:10EE1C007F03437301F05EFA044B9868431A58421F
:10EE2C005841BDE80840FFF7CDBF00BFC807002020
:10EE3C0070B490F90D30427B002B29DBD30627D11F
:10EE4C0083692BBB134962F07F0242730A4652F866
:10EE5C00184F944218BF2346CC6923B9C0E900244B
:10EE6C002060C8610CE090F90E5093F90E60B54229
:10EE7C000AD0AE4208DD5A68C0E900321060586012
:10EE8C0070BC0020FFF79EBF9C42E7D01B68E4E7F4
:10EE9C0070BC7047C80700202DE9F041002A427B66
:10EEAC000E460CBF10210821114204460FD141EA35
:10EEBC000203D20918D1437308291BD00120FFF794
:10EECC0081FFBFF35F8F637B23F060036373274B7A
:10EEDC009B68A34243D1EFF30583002B3FD130460F
:10EEEC00BDE8F041FDF796BD03F07F03437301F0DD
:10EEFC00F1F9E1E7A36813B1204601F0F3F904F14D
:10EF0C00180001F0ACFAA56D04F15807AF4211D00E
:10EF1C004FF0000875B1284601F0E4F905F118002E
:10EF2C0001F09DFAC5F878802846FFF781FFA56DA2
:10EF3C00AF42EFD10D4DAB689C42BFD1EFF30583CF
:10EF4C00002BBBD00120FFF73DFF094BAB6040F21B
:10EF5C0001129A810022C3E91822DA66B1E786F31E
:10EF6C001188BFF36F8FBDE8F08100BFC807002088
:10EF7C008006002070B590F90D20437B002A0146D5
:10EF8C0004DA03F07F03437301F0A4F94B7B154AB9
:10EF9C0063F07F0310464B7350F8183FD4698342DB
:10EFAC0008BF002323B9C1E900042160D1610CE042
:10EFBC0091F90E5093F90E60B5420ED0AE420CDDB5
:10EFCC005868C1E90030016059609068431A584292
:10EFDC00BDE870405841FFF7F5BE9C42E3D01B687A
:10EFEC00E0E700BFC8070020F8B5124B0C461146ED
:10EFFC00114A98681060DDE90676EFF31182202241
:10F00C0082F31288BFF36F8F9D68284601F074F964
:10F01C00B6F1FF3F08BFB7F1FF3F06D007493A46AC
:10F02C00334605F1180000F017FA2046BDE8F84009
:10F03C00FDF7F0BCC8070020E8070020E903010039
:10F04C0049B9EFF3058030B9054B5A699B689A4270
:10F05C0001D0FDF7DFBC81F31188BFF36F8F7047D0
:10F06C00C807002010B5EFF31184202282F3128818
:10F07C00BFF36F8F427B510704D484F31188BFF325
:10F08C006F8F10BD22F004024273FFF7D1FE2146B0
:10F09C000248BDE81040FFF7D3BF00BFFD070020BA
:10F0AC00034648B9EFF3058232B9064A51699268B2
:10F0BC00914201D0FDF7AEBC83F31188BFF36F8F83
:10F0CC00704700BFC8070020EFF31181202383F3A2
:10F0DC001288BFF36F8F054B9A68D37B013BD373B8
:10F0EC0081F31188BFF36F8F704700BFC8070020F2
:10F0FC0038B5EFF31185202484F31288BFF36F8F9A
:10F10C000A4B9A68D37B0133D3730020FFF75AFE66
:10F11C0085F31188BFF36F8FEFF3118084F312889E
:10F12C00BFF36F8FBDE83840FFF7BABFC8070020A8
:10F13C00024B03F11802C3E906227047C8070020EE
:10F14C00F8B5EFF31185202383F31288BFF36F8F8B
:10F15C0019498868437B03F07F03437301F0BAF8C5
:10F16C008B685A7B084662F07F025A7350F8182F4E
:10F17C00CC69824208BF002222B9C3E90004236093
:10F18C00CB610CE093F90E6092F90E70BE420ED07A
:10F19C00B7420CDD5168C3E900210B6053600120BC
:10F1AC00FFF710FE2846BDE8F840FDF733BCA2423D
:10F1BC00E3D01268E0E700BFC807002050EA010363
:10F1CC002DE9F04105460E4603D1FFF7B9FF0020AB
:10F1DC002BE0831C71F1FF3329DB01F055F92C185E
:10F1EC00EFF31188202383F31288BFF36F8F124F34
:10F1FC00124BB8681860FFF703FEB86810492A462E
:10F20C003346183000F028F9BA68537B43F01003EA
:10F21C0053734046FDF7FEFB01F036F9201A63EB01
:10F22C000303012873F10003D1DBBDE8F0816FF01B
:10F23C000104241AD4E700BFC8070020E807002007
:10F24C00E9030100B1F1FF3F08BFB0F1FF3F08B582
:10F25C0006D10A4B986801F086F84FF0FF3008BDD4
:10F26C00FFF7ACFF4FF47A7147F6FF730022C0FB37
:10F27C000132D80B40EA4240F1E700BFC80700203A
:10F28C00014B9868704700BFC8070020044BC01A98
:10F29C00044BC0105843044B01221A54704700BF52
:10F2AC0000070020ABAAAAAAFD070020C3897F2B68
:10F2BC0012D80A4B1B6863B1094B90F90E201B68DE
:10F2CC009A4209DB437BDB0606D1064BC31A18BFF7
:10F2DC00012303F0010070470023FAE7F007002038
:10F2EC00EC0700208005002070B50E4B0E4C1E7CE8
:10F2FC0006EB460304EBC3040546204601F0AFF8C9
:10F30C000A4B002228469A55FFF7D0FF48B1084B0C
:10F31C0008491A68013A2046D317BDE8704000F03E
:10F32C009BB870BDC807002000070020FD07002017
:10F33C00F007002099F2000038B5EFF31185202377
:10F34C0083F31288BFF36F8F104B114A9C681068BF
:10F35C00A04206D1FFF7C8FF85F31188BFF36F8F6A
:10F36C0038BD00211B7C11600A4AD35C002BF3D002
:10F37C002046FFF79BFF0028EED0637BDB0602D113
:10F38C002046FFF7F7FD2046E4E700BFC807002042
:10F39C00E8070020FD07002008B50648064A074983
:10F3AC00121A00F081FFBDE80840054A05490648DD
:10F3BC0000F07ABFC00400205E0500204009010067
:10F3CC000000000038090100C0040020034B1B683A
:10F3DC000BB9FEF7B9BC0020704700BFF407002042
:10F3EC0030B570B10B4B5B6898420AD0036843B1DF
:10F3FC00D3E90421D0E90445121941EB0501C3E915
:10F40C000421D0E9003213605A600023C0E90033B4
:10F41C0030BD00BF5005002010B50E4B1C689C423F
:10F42C0004D1FFF7D3FF6FF0004010BDFFF7CEFF04
:10F43C00002CF8D0D4E904321B1A62EBE072B3F161
:10F44C00004F72F10001EEDA002AACBF1846002022
:10F45C00EBE700BF50050020B3F1FF3F08BFB2F14E
:10F46C00FF3FF8B504461D4616465ED08160EFF3AB
:10F47C001187202383F31288BFF36F8F013275F14C
:10F48C00FF3324DA2E49D1E900206FF001039B1AD7
:10F49C004FF0FF3262EB00009E1B60EB0500012E6B
:10F4AC0070F1000301DA01260020C4E90460254E46
:10F4BC00D6F800C07568B44508BF4FF0000CBCF11D
:10F4CC00000F0DD1C4E900652C6074601CE0FFF7DF
:10F4DC007DFF013645F10005361845EBE070E4E799
:10F4EC00DCE90420D4E90431934271EB000E1DDAFF
:10F4FC00D21ADCF8043060EB0100CCE90420C4E93A
:10F50C0000C31C60CCF804403368B34209D09C4261
:10F51C0007D10D4B1C6824B9FFF77EFF2146FEF77F
:10F52C00E5FB87F31188BFF36F8FF8BD9B1A61EB76
:10F53C000001AC45C4E90431C4D0DCF800C0BEE71E
:10F54C001807002050050020F40700202DE9F84F83
:10F55C00EFF3118C202383F31288BFF36F8FDFF846
:10F56C00B0A0DFF8B0902C4FC9F80000DAF800001A
:10F57C000024504508BF00200025D7E90021D9F808
:10F58C000030E04678B3D0E9046C4FEAE37EB34236
:10F59C007EEB0C0B05DAF61A6CEB0E04C0E9046476
:10F5AC0021E0B21841EBE671C0E90445C7E900213E
:10F5BC00FFF716FF88F31188BFF36F8F83689847A6
:10F5CC00EFF31188202383F31288BFF36F8FD9F8E0
:10F5DC000030DAF800009B1B5045C446C9F80030D7
:10F5EC00CBD1D7E900219A1841EBE3730024C7E98A
:10F5FC000023C9F80040FFF70FFF2146FEF776FB0A
:10F60C0088F31188BFF36F8FBDE8F84FFFF794BEF6
:10F61C0050050020F40700201807002010B5EFF368
:10F62C001184202383F31288BFF36F8FFFF7CEFE74
:10F63C00054A0346D2E90001181841EBE37184F343
:10F64C001188BFF36F8F10BD18070020014800F020
:10F65C00DDBA00BFEB0801000FB407B5064B04AAD6
:10F66C00186852F8041B019200F008F803B05DF81A
:10F67C0004EB04B0704700BF840701002DE9F04F84
:10F68C008DB043680293837815469A07804640F103
:10F69C000D8100240E78002E00F00A81252E0BD04F
:10F6AC004B1C03930134029B41463046984700287B
:10F6BC00C0F2F6800399EDE74E788B1C252E039350
:10F6CC00F0D00027B946BB46BBF11F0F38D8A6F1C6
:10F6DC002003102B0AD8DFE803F02A0909300909A6
:10F6EC00092109090928092D09091F00A6F1300370
:10F6FC00092B33D92A2E37D11BF0400F55F8043B78
:10F70C0040F08280002BA7BF4BF0200B9946C3F131
:10F71C0000094BF0280B01E04BF0010B039B13F895
:10F72C00016B0393002ECFD130E04BF0020B4BF06A
:10F73C00040BF3E74BF0080BF0E74BF0100BEDE785
:10F74C00BBF17F0F19D8A6F13003092BD2D81BF0CF
:10F75C00400F03D00A2101FB0737DFE70A2101FB29
:10F76C0009394BF0200BD9E72E2E06D11BF0400F98
:10F77C0040F09E804BF0400BD0E76C2E31D02BD854
:10F78C00682E36D06A2E3CD04C2E3AD0002F46F044
:10F79C002003B8BF2BF04002A3F16501BCBF1FFAD8
:10F7AC0082FB0027022901D9612B2FD1073525F0C7
:10F7BC000705DFF8ACA2083507271BF0080F66D049
:10F7CC000AEB070B56465E4563D1A4EB0A0A06EB1F
:10F7DC000A02A9EB07096FE1742E9FD07A2E9DD0F7
:10F7EC00D4E71BF0800F18BF4BF4007B4BF0800B61
:10F7FC0094E71BF4807F18BF4BF4007B4BF4807BA9
:10F80C008CE74BF4207B89E71F4687E7A6F1630161
:10F81C00122900F2F080DFE811F013004F00EE0027
:10F82C00EE00EE00EE004F00EE00EE00EE00EE00FB
:10F83C00EE00FE00E900EE00EE001B00EE00AF0053
:10F84C0055F8043B8DF8183001270DF1180AB4E770
:10F85C0055F804AB834BBAF1000F08BF9A461BF066
:10F86C00400F14BF39464FF0FF31504600F010FEE8
:10F87C000746A2E7029B41462020984700280FDB51
:10F88C00013EB742F6D34C44A41BB14698E74E4612
:10F89C00F7E716F8010B029B41469847002892DACD
:10F8AC0098F8023043F0040388F802304FF0FF342C
:10F8BC0020460DB0BDE8F08F1BF0800F34D01BF448
:10F8CC00007F2CD0073525F00705AA4669685AF841
:10F8DC00080B2BF010050029ADB237DA404261EB72
:10F8EC00410145F480650DF1180B0A235A4600F0CE
:10F8FC00DBFDA0EB0B0301936B0662D5019B25F09E
:10F90C0001019F4289B240F3A180002E00F0998042
:10F91C0015F0100240F09C80BB460D4623E0AA4631
:10F92C005AF8040BC117D4E7AA461BF4807F5AF887
:10F93C00041B01D10846F5E71BF4007F15BF48B244
:10F94C0008B241F3C01141F3C031C2E750EA0103E0
:10F95C00C9D11BF0400FC6D0002FC4D12BF011021F
:10F96C0095B2BB46019740F2064115EA01021CBF55
:10F97C000BF1010B00222CE02BF010021FFA82FB82
:10F98C000A231BF0800C49D01BF400711DBF0735F6
:10F99C0025F00705AA46AA461ABF5AF8080B69684B
:10F9AC005AF8040B50EA010545D12BF016051BF053
:10F9BC00400FADB242D0002F40D12BF0170295B2C0
:10F9CC00019715F0100248D0019B002E42D103F193
:10F9DC00010B29075AD4EB0706D5D9456FDD0199E0
:10F9EC00A9EB0B035F18CB465B4649E04BF0100BC1
:10F9FC0010237826C5E7782B04D1C6F1780343F0A1
:10FA0C001003BEE7029B4146252098470028FFF6CD
:10FA1C0047AF023447E608230026B2E7AA461BF498
:10FA2C0080715AF8040BBDD01BF400711ABFC0B220
:10FA3C00614680B2B6E72BF0060295B20DF1180BB9
:10FA4C0054E725F01105ADB2BB468CE70D46B8E77F
:10FA5C003B460D4603F1020BBBE7DDF804B082E731
:10FA6C002D09010026090100CDE904324146029B13
:10FA7C00202098470028FFF613AF049B059A01330A
:10FA8C009945F1DCA4EB0B01CC189B460AB3029B05
:10FA9C004146302098470028FFF602AF8EB901345A
:10FAAC002744019B391B994224DC1D465DBB019AFE
:10FABC00A9EB0B09224455461446914435E0019FAD
:10FACC0092E7023441463046029B98470028E7DA19
:10FADC00E6E640F206410D42E2D015F0020F14BFEB
:10FAEC002B20202015F4806F04F10104414618BF2F
:10FAFC002D20E9E7029B414630209847002804F16D
:10FB0C000104CEDACCE606AB013D4146585D029BC2
:10FB1C0098470028CADAC3E6029B41462020984742
:10FB2C00002804F10104FFF6BBAEA9EB0403002B83
:10FB3C00F2DCBFE5704700EBC1004088400870471D
:10FB4C00F8B50346FFF7F7FFB0FA80F0C0F11F00DD
:10FB5C0003EB800CCA00DCF81060171D0C46063253
:10FB6C008DB256B9012101FA00F0D9680143D96070
:10FB7C00CCF81040DD539D52F8BDF1000431585AB9
:10FB8C00D85303EBC0009E52C5805D52F4E7043A93
:10FB9C002DE9F041CC1D114424F0070421F007019C
:10FBAC000E1BF708B7FA87F2C2F12405AD004FF02F
:10FBBC0000080735C2F12002ED0804604146A76039
:10FBCC00C4F80C80920004F1100000F0D2FC6B0021
:10FBDC0043F00103638004EBC5027B1B5900A4F8BE
:10FBEC0000805180A21924F83550A2F80280A3534A
:10FBFC0004EBC70329465A8842F001025A8020467A
:10FC0C00BDE8F041FFF79CBF002070470FB407B56B
:10FC1C0004A951F8040B0191FCF7A0FB03B05DF8AB
:10FC2C0004EB04B07047038B13F0070305D1036892
:10FC3C00002B0CBF002003207047022B05D1408BFA
:10FC4C00B0FA80F0400980007047012B05D10368A1
:10FC5C00002B0CBF0020052070470020704710B50A
:10FC6C000C4600B111B96FF0150010BD081D00F065
:10FC7C0093F80028F9D1A368032BF6D9F3E72DE903
:10FC8C00F0410D4607461946281D90461E4600F0C9
:10FC9C0094F8044638B13346424629463846A446C1
:10FCAC00BDE8F0416047BDE8F08110B4EFF311827C
:10FCBC00202484F31288BFF36F8F416110BC0121A3
:10FCCC00FCF77EBB38B50C46054658B151B10B68F4
:10FCDC0043B14B6833B11C22002100F04AFC2C616B
:10FCEC00002038BD6FF01500FBE770B505460E46D9
:10FCFC00FFF7B5FF041E14DBEFF31182202383F30F
:10FD0C001288BFF36F8F6B8B2C8B4FF6FF718B426E
:10FD1C0004F0070407D182F31188BFF36F8F6FF0E3
:10FD2C000A04204670BD022C0CD101336B8382F384
:10FD3C001188BFF36F8F0023224631462846FFF708
:10FD4C009EFFEEE7062C14D8DFE804F0041313131F
:10FD5C00041A0400002333606B683BB9C5E90066E4
:10FD6C00ACB902212846FCF72BFBDAE71E606E606B
:10FD7C00F6E782F31188BFF36F8F6FF00404D0E7BE
:10FD8C0082F31188BFF36F8F6FF08504C9E782F39C
:10FD9C001188BFF36F8FC4E7034658B1426802F075
:10FDAC000302012A03D0032A04D1026812B10020F5
:10FDBC00986070476FF0150070474268816002F0E0
:10FDCC000302032A4FF0000203460CBF00681046E2
:10FDDC005A6070477047012801D1EFF30583FEF795
:10FDEC0019BE01460068FFF7F6BF08B5FCF7FCFB2F
:10FDFC00BDE80840FCF71CBC00210120FFF7EBBF5D
:10FE0C0061B662B680F31188BFF36F8F704772B61C
:10FE1C00002383F31188BFF36F8FBFF34F8F30BF75
:10FE2C0062B6BFF36F8F704772B6002383F31188ED
:10FE3C00BFF36F8FBFF34F8F20BF80F31188BFF3D9
:10FE4C006F8F62B67047202809D9B0F1004F08D8DF
:10FE5C000138B0FA80F0C0F11F0040007047082054
:10FE6C0070473E20704708B5FDF758F8002008BDD4
:10FE7C000369C9B20C2201FB0233186C00F00700B5
:10FE8C00704770B5C9B20369EFF31185202484F370
:10FE9C001288BFF36F8F0C2606FB0134246C14F010
:10FEAC00C00408D0A24206D085F31188BFF36F8F2F
:10FEBC004FF0FF3070BD06FB013301221A6485F34D
:10FECC001188BFF36F8F436803EBC1035B689847DE
:10FEDC000020EFE78022FFF7D4BFF8B5069F046936
:10FEEC00C9B2EFF31186202585F31288BFF36F8F0B
:10FEFC000C2505FB0144256C05F0070CBCF1010F2A
:10FF0C000CD1276486F31188BFF36F8FC4E90E23DD
:10FF1C00436853F8313098470020F8BD05F0C00510
:10FF2C00AF4286F31188BFF36F8F0CBF6FF0770071
:10FF3C004FF0FF30F1E713B580240094FFF7CDFFAD
:10FF4C0002B010BD10B40069CBB21C2403FB04003A
:10FF5C00002110BC1047002000F0F4B81046FEF74A
:10FF6C009BBE43685B68D3F810350B60002070476C
:10FF7C0043685B6802EA010021EA0201C3F8080544
:10FF8C00C3F80C150020704743685B680020C3F869
:10FF9C000815704743685B680020C3F80C15704760
:10FFAC0043685A68D2F8043521EA03000B40C2F8C2
:10FFBC000805C2F80C350020704710B50369586865
:10FFCC00F8B1884219D19C6808685860A14200D1E8
:10FFDC009860002008602AB15A680A609A685960D3
:10FFEC0002B99960002010E0814206D108682060B7
:04FFFC00986881423E
:020000021000EC
:10000000EDD19C60EBE7044600680028F2D1002A9D
:10001000E8D16FF0150010BD30B543681360057A64
:10002000446804EBC504A34202D36FF0010030BD65
:100030005C798C4201D00833F0E70020F7E7436891
:100040001B68D3F88004C3F88004704743680269D2
:100050001B68D3F8100150B1D268002012780A70E2
:10006000C3F81001D3F8102101221A6070474FF035
:10007000FF30704702680346D2F8580140B99B68C8
:100080009B0706D4D2F82001003818BF0120704722
:100090000120704742681368D3F80413C90517D5C7
:1000A000D3F82011A1B1EFF31181202080F3128841
:1000B000BFF36F8FD3F8200130B10020C3F82001C7
:1000C000D3F820010120D86081F31188BFF36F8F2E
:1000D0009268D20614D5EFF31182202181F31288A1
:1000E000BFF36F8FD3F8581111B10021C3F8001579
:1000F0004FF48001C3F8081382F31188BFF36F8FA8
:10010000704700F150039B009BB203F1804303F55D
:10011000883300221A601B6870474FF08053D3F871
:100120003001421C04BF4FF0704393F8E00F831F6F
:10013000584258417047004700F087B8C00000F1AE
:10014000804000F5F830C0F81015C0F8142570474D
:10015000FDF7ACBF036803F01F025B0902600CBF30
:100160004FF0A04000207047F7B5019001A8DDE9ED
:10017000084716461D46FFF7EDFF019BB6F1000C40
:1001800018BF4FF0010C00EB83000B1E18BF0123BA
:10019000002D43EA4C0314BF4FF00C0C4FF0000C41
:1001A000002C43EA0C0314BF4FF4E06C4FF0000C3A
:1001B000002F43EA0C03D0F8002714BF4FF4403C53
:1001C0004FF0000C43EA0C0322EA030301B1097863
:1001D0000EB13678760019430DB12D78AD0031435C
:1001E0000CB12478240229430FB13F783F040C431B
:1001F0003C43C0F8004703B0F0BD1FB50DF10F033D
:10020000019300238DF80F1000931A461946FFF74B
:10021000ABFF05B05DF804FB024611F0010007D00A
:100220004FF0A041D1F820351360C1F8203503B953
:1002300000207047FEF7FEB8FEF7DCB8FEF7BCBB47
:1002400008B5FFF7FBFF002008BD08B1FCF79ABE18
:100250007047704740B1C368587810F001001EBF66
:100260001878B0FA80F040097047EFF3118320232B
:1002700083F31288BFF36F8FFEE708B5FFF7F5FF32
:1002800010B5D0E9003433B90020E268537843F068
:100290000103537010BD204698470028F4D0002871
:1002A000B8BF4042E368FF28A8BFFF201870ECE702
:1002B00000F065B900F055B9704708B52024EFF398
:1002C000118384F31288BFF36F8FFFF7A6FDF6E763
:1002D000EFF30580003818BF01207047FEF7C8BE55
:1002E000D0E9003213605A600023C0E90033704740
:1002F00008B5FFF7F5FF437B23F0020343730023A8
:10030000836008BD38B504460D46FEF77FFD637B6C
:1003100043F002036373E5B1A5602B689D4209D1E8
:100320006B68C4E900531C606C6012E06A689A4212
:10033000F6D01B68002BF3D094F90E2093F90E1021
:100340008A42F3D09142F1DD5A68C4E90032146068
:100350005C6038BD10B5EFF31184202383F312885D
:10036000BFF36F8FFEF76AFD84F31188BFF36F8FC1
:1003700010BD10B50446183000F077F8EFF3118186
:10038000202383F31288BFF36F8F627B12F0100279
:1003900004D081F31188BFF36F8F10BD2046BDE8F4
:1003A0001040FEF77FBD38B50446EFF311852023DA
:1003B00083F31288BFF36F8F437B13F0280F0BD1A9
:1003C00083680BB1FFF794FF637B51B903F0FB0324
:1003D00063732046FEF732FD85F31188BFF36F8FFC
:1003E00038BD03F0EB03F3E701211838FFF7DBBF5B
:1003F00038B5EFF31185202383F31288BFF36F8F95
:100400000468A0420DD034B12046FFF771FF04F11B
:10041000180000F02AF885F31188BFF36F8F20468B
:1004200038BD0024F7E7EFF31181202282F3128810
:10043000BFF36F8F027BD2070CD581F31188BFF316
:100440006F8F002383F31188BFF36F8F0423184647
:1004500002DF7047437B1B0704D581F31188BFF38C
:100460006F8F70470122FEF71DBD10B5EFF31184A9
:10047000202282F31288BFF36F8F03683BB1FEF72F
:10048000B5FF002084F31188BFF36F8F10BD6FF0AC
:100490001500F7E708B5FFF7C7F808BD10B5024625
:1004A00001448A42134603D01C780132002CF8D153
:1004B000181A10BDF0B5C3F137070446FFB203F0B8
:1004C0001F031046082BE6B233D0102B3ED0650830
:1004D000A40844EA817445EAC1752D194FEA9102D6
:1004E00042EB5102290941EA02716D1842EB1212E6
:1004F000290A41EA02616D1842EB1222290C41EAF5
:1005000002416D1842EB1242AD1842F10002EC08B4
:1005100044EA4274D10804EB8402A6EB4205EDB232
:10052000092D0CD90134A5F10A0541F10001EDB204
:1005300012E0E40844EA417406F00705C9083035C2
:1005400054EA010200F8015BBCD1F0BD240944EA81
:10055000017406F00F050909092D84BFED19EDB2EC
:10056000EDE70A44914200F1FF3300D1704710B526
:1005700011F8014B03F8014F9142F9D110BD02442B
:100580000346934200D1704703F8011BF9E70000CE
:0C059000014800687047000020070020B0
:10059C0075CF0000000000000DD00000DC0501004C
:1005AC0041020100000000001DD30000F005010015
:1005BC0091D7000004060100CDD20000000000001D
:1005CC0095DB00000000000051CF0000000000008F
:1005DC008508010094070100A407010058050020BC
:1005EC005407002094080100C0070100D80701003F
:1005FC005A050020A8070020AA080100FC070100EA
:0C060C003C0801005C050020D404002024
:10061800A1E20000370101000000000005FE000013
:1006280004060100950001000000000005FE00001E
:100638000000000005FE00000000000005FE0000AC
:100648004DE80000370101000000000005FE000031
:100658000000000005FE00000000000005FE00008C
:100668000000000005FE00000000000005FE00007C
:100678000000000005FE00000000000005FE00006C
:100688000000000005FE00000000000005FE00005C
:100698000000000005FE00000000000025DC00004E
:1006A8000000000005FE00000000000005FE00003C
:1006B8000000000005FE00000000000005FE00002C
:1006C8000000000005FE00000000000005FE00001C
:1006D8000000000005FE00000000000005FE00000C
:1006E8000000000005FE00000000000005FE0000FC
:1006F8000000000005FE00000000000005FE0000EC
:100708000000000005FE00000000000005FE0000DB
:100718000000000005FE00000000000005FE0000CB
:100728000000000005FE00000000000005FE0000BB
:100738000000000005FE00000000000005FE0000AB
:080748000000000005FE0000A6
:100750000338FDD870470000C004002000000000EE
:1007600000000B06020000006C0701000000000002
:100770007608010024000207000000207E08010026
:100780001E000B11C4040020C9CF000099CF000047
:10079000000000003DD10000BDD0000099D0000055
:1007A00063FF000065D00000E1FE000043FF000091
:1007B000000000007DFE00000000000000000000BE
:1007C000FFFFFFFF000000500000000000000000DD
:1007D0000060004000000000A1D300006FFF000097
:1007E0007DFF000095FF0000A1FF0000ADFF0000AD
:1007F00021D50000C7FF00000000000000200040DD
:1008000000000000020000000000000018080100C5
:100810000000D60100000000002000402408010074
:10082000010000002C080100040000000600000088
:10083000080004000500080007000C004D0001003E
:1008400069D800003F0001009C0501009C050100E3
:10085000CC050100D4050100DC050100DC05010028
:100860004F4E004F4646004C4544207374617465FA
:100870003A2025730A00464C4153485F30005352DA
:10088000414D5F3000636C6F636B4034303030300B
:10089000303030006770696F403530303030303084
:1008A00030000001020304050607756172744034CC
:1008B00030303032303030000000000001000000E5
:1008C0000101000001010101000000005465726D8A
:1008D000696E616C00000000000000545452205208
:1008E0004547474553006D61696E002A2A2A204218
:1008F0006F6F74696E67205A6570687972204F5304
:10090000206275696C642076332E372E302D313796
:1009100031322D6765616639326131343934636350
:10092000202A2A2A0A00286E756C6C29002A666C17
:080930006F61742A0000000051
:08093800FFFFFFFFFFFFFFFFBF
:1009400015FC00000000000073FE00000000000025
:10095000000000000000000000000000FB07002075
:10096000FA07002000000000000000000000000066
:100970000000000000000000000000000000000077
:100980000000000000000000000000000000000067
:100990000000000000000000000000000000000057
:1009A0000000000000000000000000000000000047
:1009B000000000000000000008000000FF00000030
:1009C000000000000100000000000000FFFF0F0019
:0809D000500500205005002035
:0609D80000000000000019
:0409DE0015E015E02B
:040000030000C91917
:00000001FF
