:10000000C01E0020791F0000D7700000651F00008F
:10001000651F0000651F0000651F00000000000054
:10002000000000000000000000000000812000002F
:10003000651F0000000000004D200000651F00004B
:100040001D2200001D2200001D2200001D220000B4
:100050001D2200001D2200001D2200001D220000A4
:100060001D2200001D2200001D2200001D22000094
:100070001D2200001D2200001D2200001D22000084
:100080001D2200001D2200001D2200001D22000074
:100090001D2200001D2200001D2200001D22000064
:1000A0001D2200001D2200001D2200001D22000054
:1000B0001D2200001D2200001D2200001D22000044
:1000C0001D2200001D2200001D2200001D22000034
:0C00D0001D2200001D2200001D22000067
:1000DC0053B94AB9002908BF00281CBF4FF0FF31A3
:1000EC004FF0FF3000F00CB8ADF1080C6DE904CE08
:1000FC0000F008F8DDF804E0DDE9022304B07047F5
:10010C00704700BF2DE9F04786468C460846089E8E
:10011C00154674461946002B40F0C2808542B2FA4F
:10012C0082F245D94AB1C2F1200300FA02FC2EFA40
:10013C0003F3954043EA0C0C94404FEA154EA8B2D9
:10014C00BCFBFEF8230C0EFB18CC08FB00F943EAB1
:10015C000C43994528D9EB1808F1FF3704D299457F
:10016C0002D9A8F102072B44A3EB0903A4B2B3FBF9
:10017C00FEFC0EFB1C330CFB00F044EA0344A042D3
:10018C0014D92C190CF1FF3304D2A04202D9ACF1D2
:10019C0002032C44241A43EA07401EB1D440002326
:1001AC0034607360BDE8F0874746DDE76346F1E7EE
:1001BC0092BB431B01214FEA154EAFB2B3FBFEFCC1
:1001CC00200C0EFB1C330CFB07F840EA034398454C
:1001DC0062D9EB180CF1FF3004D2984502D9ACF17E
:1001EC0002002B44A3EB0803A4B2B3FBFEFC0EFBF2
:1001FC001C330CFB07F744EA0344A7424ED92C19D5
:10020C000CF1FF3304D2A74202D9ACF102032C4407
:10021C00E41B43EA0040C0E7C2F1200320FA03F1DB
:10022C00954090402EFA03F303434FEA154EAFB2BC
:10023C00B1FBFEFC0EFB1C10190C0CFB07F841EA81
:10024C000041884504FA02F422D969180CF1FF30F8
:10025C0004D2884502D9ACF102002944A1EB080173
:10026C009BB2B1FBFEFC0EFB1C110CFB07F743EA27
:10027C0001439F420ED9EB180CF1FF3104D29F427F
:10028C0002D9ACF102012B44DB1B41EA004192E79D
:10029C006046E3E76146F7E76046A3E76346B7E7E6
:1002AC00834206D916B9002108467BE7C6E900E06F
:1002BC00F9E7B3FA83F78FB9834201D3724508D8B3
:1002CC00BEEB020460EB030301209C461EB9002127
:1002DC0068E73846FAE7C6E9004CF8E7C7F1200CA6
:1002EC00BB4022FA0CF41C432EFA0CF120FA0CF34E
:1002FC00B84001434FEA14490EFA07F5B3FBF9F87D
:10030C001FFA84FE09FB18300B0C08FB0EFA43EAAB
:10031C0000439A4502FA07F240D9E31808F1FF307E
:10032C0004D29A4502D9A8F102002344A3EB0A0394
:10033C0089B2B3FBF9F809FB183308FB0EFE41EA4E
:10034C0003418E452CD9611808F1FF3304D28E4538
:10035C0002D9A8F10203214443EA0040A0FB029811
:10036C00A1EB0E014145CE46434602D306D14D4585
:10037C0004D2B9EB020E68EB04030138002EA6D0B0
:10038C00B5EB0E0261EB030101FA0CFC22FA07F348
:10039C004CEA0303F940C6E9003198E74046C5E74B
:1003AC004346D9E7034613F8012B002AFBD1181A50
:1003BC0001387047F8B5174D284607F0C1F80446C8
:1003CC0030B32A69A968136843F4003313600B68CF
:1003DC00114A112128469847002819DB0F4F104E5F
:1003EC00AB684FF400315B692846984700280FDB57
:1003FC0084F0010414F0FF0414BF39463146094857
:10040C0004F0E6FE00214FF4004004F02DFCE7E779
:10041C000020F8BD687B000001000600408200004F
:10042C0043820000478200002DE9F04F91B0840711
:10043C00009302F004030293C2F3C20303F101031D
:10044C00DDF86890039205460E46059340F0BA819C
:10045C00041D30B1072909D86FF01B0011B0BDE89D
:10046C00F08F01F00706341DC6F10806009B4FF013
:10047C000008591E4FF0040A4FF0FF330193CDF8DA
:10048C0010804746C34653460DB1009A226005982A
:10049C00002800F3E8809848009A824203D39748DA
:1004AC008242C0F0E080039AA4EB050E92074FEA5B
:1004BC009E0000F103810F2F00F2B180002D00F09F
:1004CC00058107F140020DEB020C019A0CF8200C8F
:1004DC000CF8102C049801300490E7E07A285DD8D1
:1004EC004B280ED8472859D829282DD8252852D042
:1004FC0054D820287AD02338D0F1000B4BEB000BCA
:10050C0074E04C382E2849D8DFE800F07048484891
:10051C0048484848484848484B484848484848484C
:10052C004859484B4B595959704B6D487048184BAA
:10053C00184848827F4B48484B487F0000204FF0BA
:10054C00000B4FF0040A38E02A38C0B2012202FA3C
:10055C0000F010EA0E0F49D110F0625C2FD110EAB6
:10056C00020B43D06046013C5444B4FBFAF40AFB42
:10057C0004F4002D61D0A3EB050CA444B4453FF664
:10058C006BAF002868D1042B47D159F8043B23608A
:10059C00043404232AE0019A013A01924FF0000B33
:1005AC0024E011F8010C6C2834D111F8023C002025
:1005BC006C2B8346C5D14FF0080A5346D3E709F19B
:1005CC00070929F007090734F9E802AB24F00704FE
:1005DC0035B106982044B0423FF63EAFC4E900ABBB
:1005EC0008344FF0000B4FF0080A534611F8010F76
:1005FC00002878D0BBF1000F7FF470AF2528F5D11F
:10060C00019B013301934FF0010B4FF0040AECE70F
:10061C00584694E700208346A5E7082B02D06FF0DC
:10062C0015001BE709F1070929F00709F9E802236E
:10063C00C4E9002308340823D8E768B9042B02D195
:10064C0009F10409A4E7082BE9D109F1070929F0FC
:10065C00070909F10809EDE7059A013A059259F8DD
:10066C00042B009210E7039A900720D5A4EB050EFB
:10067C004FEA9E004FF0010CBEF5007FCFD20F2F3A
:10068C00CDD8F5B107F140020DEB020EC0B2019AC4
:10069C000EF8200C0EF8102CBCF1000F3FF41AAF22
:1006AC0060F07F000EF8200C08F101080137C5F14D
:1006BC000802043406924FF6DA7E97E74FF0000CEE
:1006CC00DAE7BCF1000F01D00136EFE702980236F1
:1006DC000028EBD10098CDE90631FFF763FEDDE988
:1006EC0006310644E2E7631BB3F5806F97D23DB940
:1006FC00A6F10804E018B1E60C7B0000708B00003A
:10070C00029A28609B082B709DF81030C2B1EB70D8
:10071C0085F80280B8F1000F05D008A80022C5F1B9
:10072C00010C97420ED1C5F101030DF120094FF0D8
:10073C00000A01930DF1300B574512D1601B8DE669
:10074C006B70E5E710F8013B190608D504EB0C0EAD
:10075C00B64503F07F033FF67FAE04F8013B013250
:10076C00DFE7B8F1000F03D099F90020002A17DB5E
:10077C00029BD3B11AF80B2004F8012B0022019B29
:10078C0098182044B0423FF667AE99F8000004F880
:10079C00010B00990392204607F08AF9039A14443E
:1007AC000AF1010A09F10109C6E799F8002055F888
:1007BC0022300093029B45F822300098FFF7F2FD9F
:1007CC00421CDCE76FF00D0048E600BF2DE9F04F4E
:1007DC0097B000AF90F802A0D7F880B03B62CBF393
:1007EC00C0030446FA62BB61894641B9457800787A
:1007FC000AEB800020444D4517D8A0EB0409E378A0
:10080C00FB61BAF1000F02D01BF0010F16D1FB698E
:10081C0053BBFB6A1BB13A6A4946204698474D4682
:10082C0028465C37BD46BDE8F08F461C3046FFF7C6
:10083C00B9FD0130304409F10109DCE72378626825
:10084C007A62FA6A9900796104EB8301002A40F01C
:10085C0000814D460E4601EB0A094FF000084E454B
:10086C004CD101EB0A0610E01BF0020FD1D023781B
:10087C009A007A6162687A62FA6A04EB8301002A50
:10088C0077D14D4601EB0A0690461BF0050F0CBFC5
:10089C0002230123FB62FB6906EB430A0BF0020304
:1008AC00BB625645BCD016F8021B16F8013C54F836
:1008BC002390AF4B994502D3AE4B994536D3BB69C8
:1008CC00002B40D0786A05F050FF00283BD0E94659
:1008DC008AB06A46A84B53617B6AC2E906314FF471
:1008EC0000731384A54B42F8103FA54800234FF426
:1008FC00125100F01DFD023DCD46D2E716F8013B2A
:10090C00F96254F82300FFF74DFDD7F88430F96AEB
:10091C0001304BB1D7F8883098453EBFD7F88430BA
:10092C0023F8180008F10108054498E7BB6923B1C6
:10093C00786A05F01AFF0028C9D11BF0010F05D108
:10094C00FB6AED1AADE7BB6A002BAAD04846FFF74D
:10095C0029FDD7F8843053B1D7F8883098453FBF7C
:10096C00D7F88420431C22F8183008F101080544FC
:10097C0097E7BAF1000F72D01BF0040672D0D04684
:10098C00002607F1480052463B61B96207F090F827
:10099C00B96A3B6901EB0A02BA62FA69F969520059
:1009AC00FA60BA6A02EB41023A610BF00202BA60D9
:1009BC003A69B96A8A4257D162787A621BF0020F9F
:1009CC0032440CBF4FEA580100211BF0010FD2B288
:1009DC0040F09F801BF0040F14BF40460020BB6109
:1009EC006270A070E1703A6A7969FB6A2046984798
:1009FC00051EFFF615AFBB6923707B6A6370FB693C
:100A0C00E37041463A6AFB6A84F802A007F1480099
:100A1C009847B0F10008C0F2B5807B693A6AA9EB3F
:100A2C000A01C91AFB68C91AD7E90A0398470028B2
:100A3C00C0F2AA80A84408EB00054FF0000B07F1A8
:100A4C00380AB34567D300213A6AFB6A08469847CF
:100A5C00E6E656464FF0000807F1380093E7564695
:100A6C00D04697E7B04695E7BA6A12F8021BBA620D
:100A7C0012F8015C3E4A54F82500904202D33D4ADC
:100A8C0090421ED3BA6932B1786A7B6005F06DFE74
:100A9C007B6800288CD1BA6802BB08F1280207F1E8
:100AAC00300C08F10100944407F1580252FA80F01E
:100ABC0008F102080CF8101C5FFA88F800F8105CBA
:100ACC0076E7BA693AB1786A7B6005F04EFE7B68CE
:100ADC0000287FF46DAF1BF0010F09D006F128023E
:100AEC0007F13000711C161806F8205CCEB25FE7D7
:100AFC001BF0040F3FF45CAF08F1280207F1300043
:100B0C0008F1010102EB000808F8105C5FFA81F8AB
:100B1C004EE7002063E71BF80A3087F8373054F8AB
:100B2C002390D7F88430FBB133F81B803A6AFB6A08
:100B3C00012107F137009847002825DB0544B8F15F
:100B4C00000F06D14846FFF72DFC00F101081FFAF3
:100B5C0088F83A6AFB6A414648469847002813DBF6
:100B6C0005440BF1010B6CE7D7F88480DEE700BF7E
:100B7C000C7B0000708B000056820000040000010A
:100B8C00C87C000045464BE6054649E6014B18601B
:100B9C00704700BFC004002080B505460E461746BE
:100BAC00984604F07FF8034606F0A0FFDFF8189093
:100BBC00044649F80030424630463946A84754F8B6
:100BCC00090001F0EBF900BF080000002DE9F04727
:100BDC00058B04462807904611D4022905F0070519
:100BEC0040F0CC80204606F046F878B10138218BD5
:100BFC00042811D8DFE800F0C2106D85950001299A
:100C0C000CBF45F0100545F02005258388F31188AD
:100C1C00BFF36F8FBDE8F08701F0070AAA4500F01B
:100C2C00A5800027B9463E46A368002B00F0BC8087
:100C3C0041F00801218388F31188BFF36F8FA168FD
:100C4C00002900F0BA800D68002900F0B680D1F8B8
:100C5C000480334652462046C047002D76D02B6880
:100C6C0029461D46F0E701F007035A1F012A1BD83D
:100C7C00002221F00701062B276889B2C4E9002263
:100C8C0009D13B4603E0628B013262831B68002B67
:100C9C00F9D141F002012183204605F0ECFF002838
:100CAC007AD041F0200176E0042B0AD121F0070123
:100CBC0089B22183204605F0DEFF10B141F02001FE
:100CCC002183218B01F0070AAA454FD00027B94692
:100CDC00AAE7236921F0070141F00601062DD3F89C
:100CEC00009021832DD1B9F1000F3FD041F00801C4
:100CFC00218388F31188BFF36F8F3A492046C84788
:100D0C0029E021F00701236941F0040189B2042D87
:100D1C00D3F804902183E6D000273E464FF0040A16
:100D2C0082E721F00701236941F0050189B2052D05
:100D3C00D3F808902183D6D000273E464FF0050A01
:100D4C0072E700273E464FF0060A6DE72B4687E711
:100D5C00B9F1000FD1D1EFF31188202383F312885E
:100D6C00BFF36F8F238B23F008032383258BEA06B5
:100D7C002ED525F01003238305F007056669218B1A
:100D8C00002EBFF670AF00232768C4E9003321F0B2
:100D9C00070141F001012183218B01F0070AAA45CB
:100DAC004FF000097FF440AF002F9CD041F00801B8
:100DBC00218388F31188BFF36F8F002FC8D03D6853
:100DCC00394633465246204605F081FF2F46F4E75C
:100DDC00AB067FF51BAF25F02003238305F0070539
:100DEC0000E700BF076D00002DE9F047DFF85880E1
:100DFC00044607464FF0010914B93846BDE8F087A0
:100E0C0094FAA4F5B5FA85F509FA05F32E0108EB69
:100E1C0005156FEA030A24EA03042B7B002BEBD0A5
:100E2C0058F806301B694BB94644042273682846AF
:100E3C00196807EA0A0700F067FADDE728469847C1
:100E4C000028D9D1F0E700BF107D000030B5104963
:100E5C00104889B0002206F0D6FC0F4D0F49002235
:100E6C000023CDE9062300240E23CDE90334CDE97C
:100E7C0001440B4B00944FF44072284603F044FCA1
:100E8C000849284606F0B1FB204609B030BD00BF2A
:100E9C00B50E0000580A0020D0050020C00D00201F
:100EAC00B91100000A830000014803F097BB00BF92
:100EBC00BC0500202DE9F04780461F480F4605F081
:100ECC00C6FF0646002830D000252846BDE8F0872E
:100EDC00237B6BB12368DB680BB1204698472368F2
:100EEC001B69D3B9636804221968204600F00CFA18
:100EFC00013610344C45EBD3B8F1000FE5D0002D82
:100F0C00E2D02846FFF770FF0546002FF7D00021EE
:100F1C004FF4A47003F0A8FEF1E720469847002890
:100F2C00E0D00AFA06F31D43E2E7044CDFF8109018
:100F3C0005464FF0010ADDE7600C0020107D000033
:100F4C00307D0000014B53F820007047DC7F00001F
:100F5C0008B5034608462BB1044A136000F082FC26
:100F6C00002008BD6FF01500FBE700BFC404002093
:100F7C0010B5044C237813B9034803F02FFB01235D
:100F8C00237010BD800D0020BC05002010B5044658
:100F9C000B4805F05CFF5CB1BFF35B8F094B53E86A
:100FAC00001F013943E80012002AF8D1BFF35B8F10
:100FBC00054806F034FC0548BDE8104003F00EBBB4
:100FCC00580C00205C0C0020580A0020BC050020A6
:100FDC000020064BBFF35B8F014653E8000F43E83C
:100FEC000012002AF9D1BFF35B8F7047580C002018
:100FFC0070B5FFF7EDFF084C084E0546B44200D320
:10100C0070BD63685B792BB123685B6813B12946AB
:10101C00204698471034F1E7107D0000307D000029
:10102C0010B5044C0449204605F0CDFC034B1C6064
:10103C0010BD00BF6C050020C87F0000500C0020C4
:10104C00084A094808B500231370084A1360084A77
:10105C004FF400411360FFF77BFFBDE80840FFF73A
:10106C00DFBF00BF810D0020576E0000580C002020
:10107C005C0C0020014600220148002305F0C4BC92
:10108C006C050020014805F05ABD00BF6C0500201E
:10109C00024B0146186805F0A6BD00BF500C00209D
:1010AC00014805F0DBBD00BF6C05002070B5284B76
:1010BC00187800284BD0FFF7E5FF054690B1BFF339
:1010CC005B8F244B53E8001F013943E80012002AC0
:1010DC00F8D1BFF35B8F204C204EB4422DD3284661
:1010EC00FFF7D6FF1E4B1F4C1B68002B19DD06F0BB
:1010FC0088FB4FF47A72A0FB020302FB0131C30B95
:10110C00D4E9002043EA41439B1A4FEAD13140F223
:10111C00E93261EB0001934271F1000101D3FFF759
:10112C0067FFD4E9003213F57A7342F10002C4E987
:10113C000032BDE87040FFF7B3BF63685B7923B141
:10114C00236829461B68204698471034C5E770BDB4
:10115C00800D00205C0C0020107D0000307D000014
:10116C00580C0020500A002070B50D4D297861B93B
:10117C000120FFF79FFE0B4C0B4EB44206D3FFF73A
:10118C0095FF0028FBD101232B7070BD63685B7940
:10119C001BB1236820469B6898471034EDE700BFCD
:1011AC00810D0020107D0000307D000000212DE914
:1011BC00F0470846FFF77EFE044658B340F26768D6
:1011CC004FF0000906F092FC1B4B1C4A1B58136095
:1011DC0033B11B4B1B68092B02DD1A4803F0FEF9D7
:1011EC00194FDFF860A0002544B12046FFF7FCFD45
:1011FC00044618B94FF0FF384FF0FF39FFF756FF90
:10120C00064628B9B5B942464B46504603F00AFA91
:10121C003546E9E74FF0FF384FF0FF39D2E72B683E
:10122C009B691BB100221146284698471035BD42D8
:10123C00F5D3E8E7054DFAE708000000540C002050
:10124C005C0C0020BC050020307D0000107D0000EF
:10125C0013B5184805F0FBFD174B1B7873B1EFF372
:10126C001184202383F31288BFF36F8FFFF71EFFC7
:10127C0084F31188BFF36F8F02B010BD0F4B1B6846
:10128C00002BF9D050B900220023CDE900230C48E3
:10129C004FF40042002303F05BFFEDE70928EBD18C
:1012AC00074806F0BCFA074802B0BDE8104003F04E
:1012BC0095B900BF5C0C0020810D0020540C00205F
:1012CC00580A0020BC05002010B5064B1B680446CC
:1012DC0098472146A060044805F012FCBDE8104078
:1012EC00FFF7B6BFC40400206C050020044A054B70
:1012FC009B1AB1EBD30F34BF52F83100002070476A
:10130C00C87C0000107D0000084BC31A10B41B11E0
:10131C0044680133237143689A71436819604368C8
:10132C0001225A7110BCFFF723BE00BF107D0000D4
:10133C002DE9F04F8FB004AFC1F34A28B8600D46C9
:10134C0091467B600C0DB8F1000F63D0002607F1BD
:10135C0014034FF0040B4FF00A0AC7F80C80C7E9CE
:10136C0007667E620193CDF808B0CDF800A007F1B6
:10137C001C03F96832464846FFF728FAB0F5006FAF
:10138C0003461CD36C468AB0D9F8041004AB26482B
:10139C00C3E9050140F2FF71D9611A464FF400719F
:1013AC001984224B42F8103F214833464FF4125116
:1013BC00FFF7BEFFA5462C37BD46BDE8F08FC0F346
:1013CC000A0804F11700184420F0070080083B605D
:1013DC00FFF750FE68F35325044690B13B68154A5D
:1013EC00C7E9083600F1100107F11403F961CDE9E2
:1013FC0000A3CDF808B0F96807F11C034846FFF7C5
:10140C00E5F968F353257B68B9682A46204605F050
:10141C0054FDD0E704F1170020F007008008FFF717
:10142C0029FE0446EDE700BF1F8300000400000105
:10143C00D87C00009B6E00002DE9F04F87B0DDE9F1
:10144C001279DDE9105A0446039193469846BFB1D0
:10145C00CDF800903B46524610210020CDF8149058
:10146C00FEF7E2FFB0F5006F06460AD3184A19489A
:10147C0040F2FF73022107B0BDE8F04F05F076BDD6
:10148C003E4605F11700304420F0070004F0070435
:10149C008008FFF7EFFD0BF0070BE40044EA8B1418
:1014AC0044EA462444EA0554054640B13FB1CDF820
:1014BC0000903B46524631461030FEF7B5FF03997B
:1014CC0043462246284607B0BDE8F04F05F0F5BC70
:1014DC005E830000D87C0000406820B1034BC01A2A
:1014EC0040F3CF0070474FF0FF307047C87C0000CE
:1014FC000EB403B503AB014653F8042B0448019317
:10150C0001F020F802B05DF804EB03B0704700BFA7
:10151C00C36F0000CA0605D48B064CBF02490349B1
:10152C00FFF7E6BF704700BF97830000968300006B
:10153C002DE9F04F89B09A46149B06939DF84CB058
:10154C00159B0593169B179E049304460D469046D7
:10155C00BBF1000F00F09D8006F48073079305F03B
:10156C0094FC06F00209024600283ED0924920461F
:10157C00FFF7BEFF0746B9F1000F08D016F0440F75
:10158C0035D18E492A462046FFF7B2FF074406F0B4
:10159C00010353B18A4B8B4953F82B208A4B2046BD
:1015AC00002A08BF1A46FFF7A3FF06F48073002B2E
:1015BC0049D006F00803002B63D1B8F1000F66D0B8
:1015CC00824942462046FFF793FF0546069B3D4461
:1015DC00002B6DD1049B002B73D1F30700F1E58038
:1015EC0031462046FFF796FFD9E00746C3E7784B14
:1015FC0018680028CAD0774B4FF47A791B68B5FB72
:10160C00F3F54FF46161B5FBF0F300FB135509FBE7
:10161C0005F54FF03C0CB3FBF1F201FB1231B5FBBD
:10162C00F0FEB1FBFCF300FB1E550CFB131109FB88
:10163C0005F50091B5FBF0F56749CDE901E52046CC
:10164C00FFF756FFA2E706F00803EBB1634B6449C2
:10165C0053F82B202046FFF74BFF0546B8F1000F3F
:10166C0005D05A4942462046FFF742FF0544BAF1DD
:10167C00000FABD05B4952462046FFF739FF0544BB
:10168C00A4E74FF0000AE1E706F00805E6E7454657
:10169C009CE7BAF1010F069B06D1002B65D1049B88
:1016AC00002B7CD000250CE0002BF8D04E485DE0E0
:1016BC004E48069B4E49224605F026F8049B002B0B
:1016CC0069D0DFF83081DFF83091049F3146102F5C
:1016DC00204628BF1027FFF71DFF4FF0000A554585
:1016EC0046DC059B49461A782046FFF701FF4FF070
:1016FC00010A1AF0070F03D141462046FFF7F8FE06
:10170C0057453CD9059B494613F80A202046FFF75C
:10171C00EFFE0AF1010ABAF1100FEAD1374920465F
:10172C004FF0000AFFF7E4FE5246059B9A5C344BDF
:10173C00995C11F0970F08BF2E2232492046FFF713
:10174C00D7FE0AF1010ABAF1100F1DD01AF0070FDB
:10175C0003D141462046FFF7CBFE57455246E4D80D
:10176C0041462046FFF7C4FEEBE720485D46A0E764
:10177C0041462046FFF7BCFE0AF1010AAFE72249B9
:10178C002046FFF7B5FEC4E7059B3B440593049B3D
:10179C00DB1B049399D1BBF1000F7FF41EAF2046E5
:1017AC0009B0BDE8F04F05F0F9BB074A05492046E2
:1017BC00FFF79EFE14E700BF9E830000A28300008B
:1017CC00EC7F0000C783000099830000CA830000EF
:1017DC00680C0020640C0020AB830000008000002B
:1017EC00CE830000D4830000F96F0000C36F0000AB
:1017FC0051250000E1830000D9830000E383000041
:10180C00648A0000E5830000DF83000073B542F2B8
:10181C000F738B4228BF0B4605680F4A04460521FF
:10182C00684603F0E7FC63680C495B6806460B22CC
:10183C00284605F0A5FB63683246694628465B6876
:10184C0005F09EFB636806495B681B22284605F081
:10185C0097FB02B070BD00BF05850000048400003A
:10186C00E8830000074A00210123904206D8064A6B
:10187C0001B901231360054B1860704740085B00E9
:10188C000121F2E740420F00640C0020680C00209C
:10189C00014B01221A707047820D0020014B002071
:1018AC0019607047800C0020024B034801221A700B
:1018BC0005F074BB830D0020308000000148FFF759
:1018CC00A5BF00BF3080000010B5064B18680C4651
:1018DC00FFF738FB21460346BDE8104002480F22B3
:1018EC00184700BF800C00203080000010B9074B57
:1018FC0018707047064B1B781BB141F2883005F00D
:10190C001ABEA420002103F0AFB900BF820D002045
:10191C00830D00202DE9F843DFF874901D4F8046AD
:10192C000E46042499F8005095B902F0E3FB2846C2
:10193C003246414602F090FB054602F0E5FBE5B16C
:10194C0001233B7099F8003073B93046BDE8F88339
:10195C0032464146002002F07FFB0546EFE7204669
:10196C00FFF7C4FF651E2C46002002F0B9FB0028CF
:10197C00EBD03B78002BF2D1E7E73B78002BE4D09F
:10198C00013C2046FFF7B2FF3B78002BCAD1DCE7C5
:10199C00830D0020820D0020F8B5074F0D4604463C
:1019AC004618B44201D12846F8BD14F8011BBB6897
:1019BC0001485B689847F4E77C7B0000014B0360AF
:1019CC0000207047748000002DE9F047064600AFF8
:1019DC000C46002936D0E9468AB0D1E90012A3683A
:1019EC006D462148A8464FF0050AC5E90501C5E931
:1019FC00072348F810AF1D48424600234FF42151ED
:101A0C00FFF796FCCD46D4E903126369AD4618483E
:101A1C00C5F810A0C5E90501C5E907231348002343
:101A2C0042464FF42151FFF783FCCD46E369114A3E
:101A3C000E48012105F09AFAA3690F4A0B480121BF
:101A4C0005F094FA012E07D1EFF305830B4A0748F2
:101A5C00103B314605F08AFA2146304602F06AFB0B
:101A6C00BD46BDE8F08700BF5A840000F87C00003A
:101A7C0089840000B8840000C7840000F58400004D
:101A8C0030BFFFF7FDBF00BF2DE9F0410B4EDFF873
:101A9C00308006EB0807CC1B054632460949204628
:101AAC0006F006F8A01942460021083C06F00EF894
:101ABC002C6707F10800BDE8F08100BF00000000B2
:101ACC0004000000307D0000074A936893F90E1063
:101ADC00002907DB526993421FBF044A536843F045
:101AEC0080535360704700BF500D002000ED00E0A4
:101AFC0070B5294C06460D462848294905F0ECFAE4
:101B0C00A36AD9043CD52548264905F0E5FA1720E7
:101B1C00A36A1A0504D52148234905F0DDFA1820DB
:101B2C001D4CA36A9B0512D51C48204905F0D4FA1C
:101B3C00A36BA26A100409D51D4A1848012105F0AF
:101B4C0015FA1EB1A36A23F40043A3621920124CA8
:101B5C00A36A590504D51148164905F0BDFA1A2097
:101B6C00A36ADA050ED50D48134905F0B5FA1B200A
:101B7C00094A936A43F47F43936200232B7070BD30
:101B8C001620C5E7A36A9B04F2D504480B4905F05F
:101B9C00A3FA1C20ECE700BF00ED00E0F87C00008D
:101BAC00088500001E8500002F850000428500007E
:101BBC005B850000708500008B850000A38500000C
:101BCC0010B5204C2049214805F086FAA36A9901EA
:101BDC0036D51E481E4905F07FFA1E20A36ADA018D
:101BEC0004D51A481B4905F077FA1F20154CA36A37
:101BFC001B0304D51548184905F06EFA2120A36A79
:101C0C00590304D51148154905F066FA22200D4CEC
:101C1C00A36A9A0304D50D48114905F05DFA2320F7
:101C2C00A36ADB0304D509480E4905F055FA2420B4
:101C3C00044A936A6FEA03436FEA1343936210BD3D
:101C4C001D20CBE700ED00E0D2850000F87C000001
:101C5C00EA850000FD85000017860000358600002F
:101C6C005A860000748600002DE9F843364D8046F4
:101C7C00894636483649174605F02EFAAB6ADE0619
:101C8C0027D53449314805F027FA1124AB6A1D07D2
:101C9C0004D531492D4805F01FFA12242A4DAB6AA0
:101CAC00980718D52D49294805F016FA6E6BAB6AC2
:101CBC00190646D52A4A25483346012105F056F91E
:101CCC00B9F1000F03D0AB6A23F08003AB6213248D
:101CDC0003E01024DAE76FF015061B4DAB6ADA0748
:101CEC0004D52049194805F0F7F91424AB6A9B0672
:101CFC0004D51D49154805F0EFF91524124B9A6AC5
:101D0C00D50602D49A6A90070AD55B68190507D5DF
:101D1C004146304600F032FA10B180F309880224B3
:101D2C00094B9A6A920642BF5A6A22F400525A62CE
:101D3C009A6A42F0FF029A6200233B702046BDE88B
:101D4C00F8836FF01506C2E700ED00E0F87C0000A8
:101D5C009F860000B58600002F850000E8860000F5
:101D6C000087000016870000A38500002DE9F041D4
:101D7C00664B8AB0D3F8048000AF0446C8F308055C
:101D8C00002686F31188BFF36F8F02F07F43B3F107
:101D9C007F4F07D102F00C03082B12D15C495D4830
:101DAC0005F09AF9002634460023FB71EB1E092B33
:101DBC0000F28A80DFE803F00A80837D88888888B7
:101DCC00888610074CBF0C460126EDE75249514856
:101DDC004E4D05F081F90023FB71EB6A9A0705D58E
:101DEC004E494C4805F078F9002333E0EB6A002BA0
:101DFC0001DA4B49F5E7EB6A5B00F5D549494548F3
:101E0C0005F06AF96B69A26943F480736B61BFF3E7
:101E1C004F8FBFF36F8F6B6932F8022C23F48073F2
:101E2C006B61BFF34F8FBFF36F8F4DF602739A4206
:101E3C0009D0AB6ADBB27BB3FA1D01212046FFF758
:101E4C0013FF034606E02368374A3248012105F0A8
:101E5C008DF82368FA79DAB907F1080504F1200C3A
:101E6C00206861682A4603C2083464451546F7D1D8
:101E7C007A6A002E44D0C2F3080121B96FEA5222CB
:101E8C006FEA42227A6207F108011846FFF79CFDBF
:101E9C002837BD46BDE8F081AB6A13F47F4F04D000
:101EAC00F91D0120FFF724FECBE7AB6AB3F5803FA9
:101EBC009AD3FFF785FEC4E7FA1D0021BEE7F91D92
:101ECC000020EFE719498CE7194A1A4B18F4F87FF0
:101EDC00E8468AB018BF13466A461749C2E905138B
:101EEC004FF400731384103D144BD56142F8103F2E
:101EFC00084800234FF41151FFF71AFAC54673E74F
:101F0C0022F4FF7222F00102BCE700BF00ED00E0FA
:101F1C0063870000F87C00008E870000A587000016
:101F2C00C6870000D4870000F38700000F880000EC
:101F3C004A87000035870000338800000400000148
:101F4C00044B5A6942F010025A615A6922F0080295
:101F5C005A61704700ED00E0EFF30880EFF3098160
:101F6C0001B57246FFF702FF01BD00BF01F038FA60
:101F7C00202080F3118808484FF40461401880F346
:101F8C000988EFF314800221084380F31488BFF30F
:101F9C006F8F00F0B3F8000000110020084B9B6815
:101FAC0083420BD1EFF3058343B1064B5A6842F0E1
:101FBC0080525A605A6A22F400425A6205F0E6BB1B
:101FCC00500D002000ED00E0094A93686FF00A0103
:101FDC009967084958674B6843F080534B6000235E
:101FEC0083F31188BFF36F8F9368986F704700BFAE
:101FFC00500D002000ED00E010B50446EFF3118306
:10200C00202383F31288BFF36F8F0A4B58699860B3
:10201C00094B4FF000625A60084B026F1A600022A5
:10202C00436F426783F31188BFF36F8F00F00EF993
:10203C00204610BD500D002000ED00E0A80C002043
:10204C000B498A684FF030001044EFF3098C80E89C
:10205C00F01F74467046FFF7CFFFA64604498A6806
:10206C0002F1300090E8F01F8CF3098870470000F3
:10207C00500D00201EF0040F0CBFEFF30880EFF39F
:10208C000980816911F8021C0229FFD001B505F005
:10209C0018F801BD40B2002807DB044A41090123AE
:1020AC0000F01F00834042F82130704700E100E04F
:1020BC00054B420900F01F0053F82220012303FABC
:1020CC0000F01040704700BF00E100E040B2002873
:1020DC00A8BF00F1604001F10101B8BF064B4FEA07
:1020EC004111ACBF00F5614000F00F00C9B2B4BFA4
:1020FC00195480F80013704714ED00E00F4A08B52E
:10210C000F4B22F07F029A60BFF34F8FBFF36F8F9C
:10211C00D3F8882022F47002C3F88820EFF31483DC
:10212C0023F0040383F31488BFF36F8F02F0EEF8EF
:10213C0002F044FE00F060F802F02CF90000000000
:10214C0000ED00E042F8203C009B42F81C3C0A49A0
:10215C00019B42F8183C029B42F8143C21F001010F
:10216C004FF0807342F8043C42F8081C0023203ADC
:10217C0002654367704700BFA50B0000094A034680
:10218C00906870B113F1160F006E05D0A0F14002EB
:10219C009A4205D8834203D2814228BF002070475F
:1021AC0000207047500D002008B515460B4A0C4B0B
:1021BC009060026F1A600E4600F048F82C4686F3C9
:1021CC0009884FF00000074B984720464FF000015C
:1021DC004FF000024FF00003034C2047500D00203D
:1021EC00A80C0020F5700000A50B0000014B10227C
:1021FC001A61704700ED00E0044800232021C2184A
:10220C000133272B82F80013F9D1704700E100E06D
:10221C0008B5EFF30583064A103B02EBC30152F8F5
:10222C00330049688847BDE80840FFF74DBC00BF44
:10223C00907B0000024B034A0348012100F08AB84E
:10224C00000001200000002074800000026E054B8D
:10225C00403A1A60044A4021C3E901121846012190
:10226C0000F082B8AC0C002000000B1508B503463A
:10227C001048D0F89020C2F30722013A934207D9B4
:10228C000D480E4A012104F071FE6FF0150008BDD7
:10229C00C0F898300A6822F01F021A4342F010026C
:1022AC00C0F89C208A6842F00102C0F8A0201846B1
:1022BC00EDE700BF00ED00E0F07C00004A88000074
:1022CC00F0B50E4685B01F4604460025B5420DDA22
:1022DC00606810B397B1431E18420AD0104A1148D7
:1022EC002B46012104F042FE6FF01502104605B09A
:1022FC00F0BD1F28F2D921680B42EFD1236801935E
:10230C0004F015FFA36801A90343D0B20393FFF7B0
:10231C00ADFF10F1160FE7D0421C01350C34D5E798
:10232C0070880000F07C0000044B0522C3F8942058
:10233C00BFF34F8FBFF36F8F704700BF00ED00E00E
:10234C00BFF35F8F024B0022C3F89420704700BF8D
:10235C0000ED00E010B5034C01232278FFF7B0FF2D
:10236C00207010BD950D002008B50B4A0023127883
:10237C00FFF7A6FF10F1160F07D0084A0021D2F87C
:10238C009030C3F30723984200DB08BDC2F89800D5
:10239C00C2F8A0100130F2E7950D002000ED00E02E
:1023AC002DE9F04357485849D0F890300D68C3F3E5
:1023BC0007239D4285B000F2A180FFF7C1FF496859
:1023CC000022954201F10C011AD1504C504F25704E
:1023DC006846FFF7F3FADFF83C81DFF83C910646DC
:1023EC000025AE421FD1237846490020D1F8902019
:1023FC00C2F3072293427BDBFFF796FF00204CE0F1
:10240C00C0F8982051F80C3C23F01F03134343F001
:10241C001003C0F89C3051F8043C43F00103C0F8A1
:10242C00A0300132CDE7009800EB05114FEA051CF6
:10243C00CB683B40B3F5000F44D00AD8B3F5001F6E
:10244C002ED0B3F5800F34D0B3F5801F10D00135EA
:10245C00C7E7B3F1807F3ED0B3F1007FF7D150F8DE
:10246C000C3088684A6804F062FE40F4802009E071
:10247C0050F80C3088684A6804F059FE40F08850D7
:10248C0040F43020039001A92078CDE90123FFF717
:10249C00EDFE002828DA6FF0150005B0BDE8F083DA
:1024AC0050F80C3088684A6804F041FE40EA080095
:1024BC00E8E750F80C3088684A6804F038FE40EAC7
:1024CC000900DFE750F80C3088684A6804F02FFEEA
:1024DC0040F08270D6E750F80C3088684A6804F0F7
:1024EC0026FE40F08870CDE7237801332370AEE7E9
:1024FC00C1F89830C1F8A000013377E74FF0FF30F6
:10250C00CBE700BF00ED00E080800000950D0020BF
:10251C000000F0FF000008110000020708B5024B94
:10252C001B689847002008BDB80C0020034B044AD8
:10253C001860937843F0020393707047B80C002036
:10254C00D0040020F0B587B007460E461446002193
:10255C00102268461D4605F0B9FA02238DF80230A8
:10256C002A46054B019321466846CDE9047602F0D4
:10257C0009FF07B0F0BD00BF5B71000008B506494C
:10258C00064821F00701C1F1005202F5803204F037
:10259C007EF8002008BD00BF071F0020BC0C0020E7
:1025AC00024B0122C3F840250020704700E0014097
:1025BC0020B1034B800143F001031847704700BF63
:1025CC00307D0000084B70B5C31A0D4607499B10AF
:1025DC00044659430648402204F0CDFD2B460146E3
:1025EC002046BDE870401847DC0C0020B76DDBB608
:1025FC00547B000073B50C4C0C4A4023041B009315
:10260C000D460B460A49A41061430646094804F0DE
:10261C00DDFD011E05DA30462B4602B0BDE87040E8
:10262C00184702B070BD00BFDC0C002041720000E6
:10263C00B76DDBB6547B0000002270B50121044657
:10264C001046FFF743FD0F4801F0B2F80E4B9842CD
:10265C0015D101F0BDF826690C49304604F05AFB3F
:10266C0000280BDB012535642469084904F11C00A2
:10267C0004F050FB002801DBE564002070BD6FF016
:10268C000400FBE7ED2700000000AD0BA480000068
:10269C001FB500220123CDE90223094ACDF800D051
:1026AC006B46CDF804D004F0BEFD002805DB4FF4DA
:1026BC0080420023684601F0B5FF05B05DF804FBCD
:1026CC005972000010B5074C23782BB94FF4A57044
:1026DC0004F031FF01232370BDE81040002001F00D
:1026EC0089B800BF960D002010B5EFF3118420239C
:1026FC0083F31288BFF36F8F074A136823F002012C
:10270C00DB07116002D4012004F098FE84F31188D9
:10271C00BFF36F8F10BD00BF2C0D002030B4104BD9
:10272C000C2202FB003301460020D3E90E529863C1
:10273C00EFF31180202484F31288BFF36F8F1C6C8D
:10274C0004F0C00444F002041C6480F31188BFF34D
:10275C006F8F1DB12B46034830BC184730BC7047F7
:10276C00DC0C0020547B000010B4EFF3118220230A
:10277C0083F31288BFF36F8F1748016841F002048E
:10278C000460C80707D482F31188BFF36F8F012050
:10279C0010BC01F02FB84FF08041D1F80C04D1F8E7
:1027AC000C14C907EFD5EFF3118083F31288BFF334
:1027BC006F8F0A490B6C03F0C00343F002030B64E8
:1027CC0080F31188BFF36F8F82F31188BFF36F8F83
:1027DC00002010BCFFF7A2BF2C0D0020DC0C002049
:1027EC0010B1012804D07047034B1B6C5B0701D15F
:1027FC00FFF794BF704700BFDC0C00202DE9F041BF
:10280C003849BFF35B8F0746012251E8003F41E88E
:10281C0000200028F9D1BFF35B8F33B9324933481C
:10282C004B60CB608A6004F088FA7B1E012B2BD89E
:10283C00012F07D14FF08043D3F81C3403F003036E
:10284C00012B21D004F0CBFE0546F8B9284B1B78A0
:10285C00E3B14FF080430222C3F808230646DFF8A9
:10286C0094804FF08044D4F81824D4F81834D20350
:10287C0015D503F00303012B01D0012F0FD155B354
:10288C0086F31188BFF36F8FBDE8F081EFF31186EB
:10289C00202383F31288BFF36F8F0125DFE7ADB1DF
:1028AC00304604F035FCD4F81835002BDBD1D4F8C5
:1028BC000421002AD7D0C4F80431D4F80431012300
:1028CC00C4F81835C8F88031A360CCE7002121206A
:1028DC0002F0CAF9E7E74FF080430222C3F8042361
:1028EC00D2E700BFD80C0020C80C0020F80C002048
:1028FC00990D002000E100E008B5074804F020FE27
:10290C0038B10648FFF712FE0448FEF73FF90020E5
:10291C0008BD6FF01200FBE77C7B00002D29000046
:10292C000A2838B5074D044604D1AB680D215B6805
:10293C0028469847AB6803485B68E1B29847204645
:10294C0038BD00BF7C7B000038B545682B69B3B13E
:10295C001035284601F03AFA044680B9014628465B
:10296C0001F000FA084B98420BD108492246284640
:10297C0001F0E0F9224605210620FFF7A7FB002015
:10298C0038BD6FF00400FBE70000AD0B9D29000083
:10299C00430970B507D10B4B596821B101250C685F
:1029AC00094E854001B970BD8A682A4002D04B6837
:1029BC00304698471CB1236821461C46F2E7234653
:1029CC00FAE700BF300D0020687B00002DE9F043D2
:1029DC00476840F20636D0063B7B87B002EA060613
:1029EC0054BFC2F34010032001F01F05B6F5837FDE
:1029FC00144645EA43158DF8030042D00FD8062E35
:102A0C0018D007D8B6B1022E3DD06FF0150007B024
:102A1C00BDE8F083B6F5807FF7D101260AE040F2DD
:102A2C000222964231D0B6F5407F30D0B6F5007F09
:102A3C00EBD1022622032CD57A6801238B40C2F8F5
:102A4C0008353B696BBB05F01F026D0976D192000E
:102A5C0002F1A04284F48031D2F80037C1F3004176
:102A6C00C4F3404423F4E16344EA410423F0070334
:102A7C001C4344EA800444EA0624C2F800470020C0
:102A8C00C5E70726D6E70426D4E70526D2E70326B2
:102A9C00D0E7630341BF01237A688B40C2F80C3541
:102AAC00CFE710370DF102022946384601F048F9FC
:102ABC0014F4403F80460CD12946384604F030FDD2
:102ACC00214B9845DBD19DF80210384601F088F96E
:102ADC00D5E701AB4FF0000903AA29463846CDE9EA
:102AEC000439CDE90199CDF80C9000F0FDFF164B9F
:102AFC0098428AD114F4003315D09DF803308DF828
:102B0C000E3084F48034C4F300444B4603AA2946A7
:102B1C0038468DF80C608DF80D4001F095F80A4B95
:102B2C009842CDD071E7CDE9043303AA0DF103032C
:102B3C0029463846039300F0D7FFF0E702F5E07220
:102B4C0053F82230FFDE00BF0000AD0BF0B540683B
:102B5C00057B01F01F0444EA4514056987B0002D7C
:102B6C0060D0B2F5001F00F1100506D121462846B1
:102B7C0004F0D8FC002007B0F0BD01AE0027B2F580
:102B8C00800F0197776038D1B3F1007F14BF052314
:102B9C0004238DF804300023CDE904630393836888
:102BAC0023FA01F111F0010119D1B2F1A07F16D174
:102BBC0004F01F03620903F5E07339D14FF0A04212
:102BCC0052F82330DB070AD40DF1030632462146B6
:102BDC00284601F0B5F8184B984219D0029603AA72
:102BEC002146284600F080FF144B98421DD101224B
:102BFC002146284601F000F9BCE7B3F1C06F05D0BF
:102C0C00B3F1007F14BF01230223C2E70323C0E703
:102C1C003146284601F0EAF8084B9842DED06FF0B6
:102C2C000B00A8E76FF08500A5E76FF01500A2E791
:102C3C0051F82330FFDE00BF0400AD0B0000AD0BDC
:102C4C002DE9F0435B4E5C4F00EB810140F2FF1528
:102C5C00814202D10020BDE8F083046814F4804F57
:102C6C00C4F3C32CC4F3080340F09080A40C16F8F2
:102C7C000CC0AB4208BF4FF0FF33192C00F2898017
:102C8C00DFE804F00D13191C1F251C878787873676
:102C9C0063878787878787878787667B7E81C2F86C
:102CAC000C355C1C5ED10430D2E7C2F814355C1CC8
:102CBC00F9D000245FE0C2F80835F2E7C2F810350D
:102CCC00F5E75C1CC2F80835EDD0002404E05C1C70
:102CDC00C2F80C35E7D001245FEA531E5CD14FF0EB
:102CEC0001084FF0A04E08FA03F9CEF80C950AE053
:102CFC00C2F80835BCF1000FD9D15C1CD3D000242C
:102D0C00A0464FF0060CD0F8009009F4004EBEF12E
:102D1C00000F1CBF4FF00008012403F01F0E5B09CD
:102D2C0042D14FEA8E0E0EF1A04EC9F34129DEF8C6
:102D3C0000373B4043EA890343EA0C2343EA080388
:102D4C0043EA4403CEF80037ADE7C2F80C35D1E7BF
:102D5C00C2F86035B3F1FF3F0468A4D0C4F300445B
:102D6C00002CB8D05C091BD101244FF0A04E04FA02
:102D7C0003F8CEF80885A046C5E7C2F86435E9E744
:102D8C00C2F86835E6E7C2F86C35E3E76FF015007A
:102D9C0061E76FF085005EE70023C3F80C35FFDEBA
:102DAC000023C3F80835FAE70EF5E07E002353F84C
:102DBC002E30F4E7DD880000F0F8FCFFF7B507468D
:102DCC00002201210220FFF781F90220FFF762F9AE
:102DDC007D683E692C680021C4F8001537602F69A6
:102DEC0001AA384604F08AFA002820DB019B3A68D5
:102DFC0019791868FFF724FF002818DB6B69C4F8F1
:102E0C0024356B7E2A7E1343C4F86C35AB68990766
:102E1C001BD506F1100001F0E9F8204B984208D0C0
:102E2C001F48204A012104F098F86FF0040003B009
:102E3C00F0BD307C04F10C0204F5907104F0F4FA4E
:102E4C00337C0120984000F04BFC0823C4F800357B
:102E5C002B7B53B9C4F81031D4F81031F368C4F893
:102E6C0034350123C4F838352360AB689A075CBF4E
:102E7C004FF48073C4F80433AB68DB0644BF4FF4E3
:102E8C008003C4F80433B368C4F84435002001232C
:102E9C00C4F84805A360E360C9E700BF0000AD0BB0
:102EAC00087D0000E58800002DE9F0410446076923
:102EBC000D4604F094FB4FF02008B0B92C4B1B7856
:102ECC009BB16426606804F047FAF0B9012004F065
:102EDC00A9FA013EF6D10021212001F0C5FEF0E750
:102EEC0086F31188BFF36F8FF5E7EFF31186314648
:102EFC0088F31288BFF36F8F606804F02DFA80B9E5
:102F0C0086F31188BFF36F8FEFE7EFF3118631462D
:102F1C0088F31288BFF36F8F606804F01DFA0028E5
:102F2C00DED0BB681D706268B8681368C3F84405CE
:102F3C000120C3F848050020C3F82001D3F8205124
:102F4C00C3F858019268D3F85801D20608D56268C4
:102F5C0012680820C2F800054FF48002C3F804235D
:102F6C0001229A6081F31188BFF36F8FBDE8F08165
:102F7C00990D002070B5012383400E4ABFF35B8F7F
:102F8C00DC4352E8001F01EA040542E80056002E1B
:102F9C00F7D1BFF35B8F4FF4803282400648C0F804
:102FAC000823BFF35F8FBFF36F8F0B4214BF012059
:102FBC00002070BD400D00200010014070B40E497F
:102FCC00D1E90034D01AC31844F1000422F07F4632
:102FDC00C1E90034A6F50013B3F5400F09D2074B35
:102FEC001B681A0A1B069C19054B42F10005C3E924
:102FFC00004570BC01F0BCBFA00A0020440D0020AD
:10300C00A80A002011B3BFF35B8F0123104A834041
:10301C0052E800CF4CEA030C42E800C10029F7D17A
:10302C00BFF35B8F0B4A4FF480338340C2F80433F9
:10303C00094BBFF35B8F1B68BFF35B8FC340DB0790
:10304C0042BF064B4FF40032C3F80021704700BF5B
:10305C00400D0020001001403C0D002000E100E07C
:10306C000D4B1868010A0006BFF35F8F0B4BD3F8AA
:10307C000435181841F10001B3F5801F0AD2084B32
:10308C00D3E90023904271EB030303D210F180705B
:10309C0041F10001704700BF440D002000100140B9
:1030AC00A80A00202DE9F04F85B016461F469DF862
:1030BC0040A00446FFF75EFF0190FFF7D1FFB0423E
:1030CC0071EB070354D23E4B301A67EB0101984267
:1030DC0071F100014FD23B4B03EB0413D3E90223F4
:1030EC009F4208BF96425ED037494FF4803804F1B6
:1030FC00500508FA04F8AD00C1F848832046ADB27B
:10310C0004F071F926F07F4B05F1804504F5A873A6
:10311C0005F58835DC464FF003090293029A2CF032
:10312C007F4341F82230C1F84483D1F80435274A53
:10313C006FF00200C01A604420F07F40904232D9F8
:10314C00286868B1D1F804350393A3EB0B0020F089
:10315C007F40B0F5000F26D9204604F044F9039BBC
:10316C00BAF1000F07D109EB030C09F10109D5E7FE
:10317C00BAF1000F09D06FF0150520460199FFF741
:10318C0041FF284605B0BDE8F08F0123104ABFF37C
:10319C005B8FA34052E8000F184342E8000100295E
:1031AC00F8D1BFF35B8F07490E98230101EB041292
:1031BC00C8500F9B5360C2E902670025DDE700BFD2
:1031CC0001008000900A002000100140FDFF7F00EC
:1031DC003C0D00207FB51C4C1C4BC4F80833C4F8C4
:1031EC0048331B4B00254FF0FF304FF0FF31C4F834
:1031FC000855C3E902014FF48033C4F80433154B6E
:10320C0002264FF400320121C4F804631120C3F8E4
:10321C0080212A46FEF75AFF1120FEF73BFF0E4A8B
:10322C000123A360236013600C4B0D4A0093CDE97E
:10323C00015500232846FFF735FF3046FFF7DEFA2D
:10324C00284604B070BD00BF0010014003000F0001
:10325C00900A002000E100E0400D0020C92F000082
:10326C00FFFF7F002DE9F7432F4CD4F80433990767
:10327C000BD5D4F8043143B12C4A0023C4F80431E3
:10328C00D4F80431136801331360D4F80433DA032F
:10329C0029D5BFF35B8F264B53E8002F22F0010199
:1032AC0043E800100028F7D1BFF35B8FD30702D49B
:1032BC00D4F84031BBB10025C4F84051D4F84031AA
:1032CC00FFF7CEFEEFF31182202383F31288BFF3B6
:1032DC006F8F184BD3E90267B042B94106D282F323
:1032EC001188BFF36F8F03B0BDE8F0834FF0FF3848
:1032FC004FF0FF39C3E90289D3E900101D604FF488
:10330C008033C4F84833C4F84051D4F8403182F3C8
:10331C001188BFF36F8F0029E5D0009032463B46F1
:10332C0028468847DFE700BF00100140440D00200D
:10333C003C0D0020900A002030B5431C124C85B087
:10334C0005D08442A8BF0446012CB8BF0124FFF766
:10335C0087FE0E4B0C4DD3E90013401AB0F5000F4D
:10336C0010D22218AA4228BF2A4652184FF0000049
:10337C0007490091CDE9010043F10003FFF792FEEC
:10338C0005B030BD2A46F0E7FFFF7F00A00A002001
:10339C00C92F000008B5FFF763FE024B1B68C01A6B
:1033AC0008BD00BFA00A00204FF0704393F8E02F37
:1033BC00062A09D1D3F8E83FC3F30313033B042BCC
:1033CC0002D8024AD05C7047002070473189000057
:1033DC00024AD2F80034002BFBD0704700E00140C9
:1033EC0010B504F010F840B14FF080538E4AD3F86A
:1033FC002433C3F30423C2F84035FFF7D5FF10B1D3
:10340C008A4B8B4A5A6703F0FEFF48B14FF080534A
:10341C004FF08042D3F84432C3F34233C2F83C3508
:10342C00FFF7C2FF30B1834AD2F8FC3023F080732F
:10343C00C2F8FC3003F0E7FF40B14FF080430022AC
:10344C00C3F80C21C3F81021C3F83825FFF7ACFFE3
:10345C0020B14FF080430322C3F8A025FFF7A4FF4F
:10346C0060B1754B0522C3F810260122C3F88826DB
:10347C000022C3F818263F22C3F814264FF08053BD
:10348C00D3F83021511C09BF4FF07043D3F83431BD
:10349C0093F8E02FD3F8E83F08BFC3F30313062AD1
:1034AC004DD1033B042B03D8644AD35C002B46D08C
:1034BC004FF08052624BD2F80414C3F82015D2F8A6
:1034CC000814C3F82415D2F80C14C3F82815D2F834
:1034DC001014C3F82C15D2F81414C3F83015D2F804
:1034EC001814C3F83415D2F81C14C3F84015D2F8CC
:1034FC002014C3F84415D2F82414C3F84815D2F894
:10350C002814C3F84C15D2F82C14C3F85015D2F863
:10351C003014C3F85415D2F83414C3F86015D2F82B
:10352C003814C3F86415D2F83C14C3F86815D2F8F3
:10353C004014C3F86C15D2F84424C3F8702503F07A
:10354C0062FF48B14FF080534FF08042D3F85832AD
:10355C0003F04F03C2F8E43E03F055FF48B14FF0BF
:10356C008043D3F80024D20744BF6FF00102C3F8A4
:10357C0000244FF08053D3F83021062A26D1D3F8FB
:10358C003431033B042B02D82E4AD35C63B12E4A50
:10359C00D2F83C3743F48063C2F83C374FF0805389
:1035AC00D3F83031062B11D14FF08053D3F834318E
:1035BC00033B042B02D8254AD35C3BB14FF01023BC
:1035CC00D3F808224FF08043C3F858254FF010234E
:1035DC00D3F80022002A03DBD3F80432002B22DAC2
:1035EC001B4901234FF01020C1F804351524FFF7B7
:1035FC00EFFEC0F80042FFF7EBFEC0F80442FFF705
:10360C00E7FE0023C1F80435FFF7E2FEBFF34F8F4E
:10361C000849104BCA6802F4E0621343CB60BFF355
:10362C004F8F00BFFDE710BD0030014000C00740C8
:10363C000DF0ADBA00ED00E0005000402C89000008
:10364C0000C00040278900000010004022890000C3
:10365C0000E001400400FA0530B50468CCB1BFF3BA
:10366C005B8FB4FA84F3C3F11F03DBB201229A40DF
:10367C0024EA020250E8005FA54204D140E8002C85
:10368C00BCF1000FF6D1BFF35B8FE6D102480B7093
:10369C0030BD0248FCE700BF0000AD0B0200AD0BD3
:1036AC0010B50368CB40DB0714D401238B400268B0
:1036BC00BFF35B8F43EA020150E8004F944204D100
:1036CC0040E8001CBCF1000FF6D1BFF35B8FEED1CC
:1036DC00014810BD0148FCE70000AD0B0400AD0B28
:1036EC00014BC3F80405704700F00140F7B50446E0
:1036FC0018B1012823D003B0F0BD4FF08043022253
:10370C00C3F808230122DA60C3F80401D3F80431AA
:10371C00064601238DF8073042F210754FF08047B2
:10372C00D4B1012CE7D1D7F80C3403F48033AEBB01
:10373C0083B3012003F076FE013DF4D12AE04FF073
:10374C0080430022C3F808035860C3F80021D3F863
:10375C0000310DF10706DCE7D7F8183403F4803399
:10376C003EB9002BC7D0012003F05CFE013DF3D124
:10377C00C1E7D7F8182402F003023260002BBAD04C
:10378C009DF80700012803D103F04CFE013DC7D181
:10379C00012CB0D1054B00225A71ACE7D7F80C24A0
:1037AC0002F001023270002BEAD1F3E7480D002041
:1037BC00044B1A7922B9012218609A80024870478A
:1037CC0002487047480D00200000AD0B0C00AD0BFB
:1037DC0008B5074B1B682BB10020FEF769FC08B934
:1037EC00FEF758FC4FF080430022C3F8182508BDA3
:1037FC00480D002038B5B0B1012855D14FF08042AA
:10380C000023C2F80031D2F80021304A03F1804382
:10381C00012119602E4B1B68002B50D04FF08043B8
:10382C00C3F8040340E04FF08043D3F81814D3F8E6
:10383C001824C8032AD502F00303012B04D013B1BA
:10384C000020FFF753FF00234FF08042C2F81835D9
:10385C000023C2F80431D2F804311E4AD2F8FC001D
:10386C0040F08073C2F8FC301B4B1C6844F0010123
:10387C0019605D685968491BB1F50A5FFAD31C6081
:10388C00C2F8FC000823154A0220BFE7D3F8142421
:10389C00D107D8D5D3F81C249207D1D40C4A12687E
:1038AC001AB10222C3F8042338BDD3F80421002A2C
:1038BC00FBD00022C3F80421D3F80431F4E71368D9
:1038CC00002BFCD0002313601368EDE700010040CF
:1038DC00480D002000ED00E0001000E00401004065
:1038EC0010B54FF08043D3F800216AB10022C3F821
:1038FC000021D3F800210122C3F80823114B587979
:10390C0010B95A711B6898474FF08043D3F80421C3
:10391C0072B10022C3F80421D3F80421D3F818247F
:10392C00D3F81824920704D10122C3F818259A6001
:10393C0010BD0222C3F80823024BBDE810401B68DF
:10394C0001201847480D002070B500F108030C4CFD
:10395C0034F81330DA0505460E4607D5C3F3432376
:10396C0004EBC30254F8333052689847A3682BB168
:10397C00E26831462846BDE87040184770BD00BF6C
:10398C00F404002010B4C0B2114A083032F81030E0
:10399C00D9051BD5C3F3432123F4F85322F8103077
:1039AC0002F10E04002034F8023F13F4807F03D0A0
:1039BC00C3F34323994209D001302028F3D10023CB
:1039CC0042F83130034810BCFFF76ABE10BC704798
:1039DC00F40400204C050020F0B5054600200446F8
:1039EC00012607468C420BD1114BD3F87C2132B106
:1039FC000022C3F87C21D3F87C3140F00040F0BDAC
:103A0C00E3B29B0003F580729B0806FA03F31D4298
:103A1C000BD002F1804202F5C042D2F800C0BCF1DA
:103A2C00000F02D01760126818430134DAE700BFA8
:103A3C0000600040CBB20246083308460C4931F80E
:103A4C001330990611D599070FD410685B0B01211F
:103A5C009940C0F80813126802EB8303D3F81025C1
:103A6C0022F00302C3F810257047002103F03BBD80
:103A7C00F4040020F7B5CDB2174E0835074636F8DA
:103A8C001530DB070C4624D5FFF7D4FF36F815307C
:103A9C009A0606D55B0B3A6803F5A273002142F82F
:103AAC0023102046FFF76EFF002301A826F81530DF
:103ABC00019403F0C5FC019B00EB8300074BD0F88D
:103ACC000027134043F00203C0F80037044803B04A
:103ADC00F0BD0448FBE700BFF4040020F0F8FCFF45
:103AEC000000AD0B0400AD0B2DE9FF411368074638
:103AFC000C461546FBB1CEB2DFF83C81083638F8DF
:103B0C00162002F02202222A22D00022CDE9002225
:103B1C008DF80E208DF80F200DF10E010DF10F0216
:103B2C00204603F097FC38F8163023F0020343F0DC
:103B3C00010328F816306B684BB393F800C05A6831
:103B4C003D4EE3B2083336F81310880702D5B2B1F4
:103B5C003A481FE021F02001C904C90C26F81310C3
:103B6C006AB1BCF1030FF3D86A68386852681278EE
:103B7C00BCF1000F11D102F5A27240F822C036F848
:103B8C00132022F01C0242EA8C0226F81320AB68A8
:103B9C0043BB2B4804B0BDE8F08100EB820041EA46
:103BAC004231D0F810E52EF0030EC0F810E53F6856
:103BBC0007EB820741F02001D7F8100526F8131007
:103BCC0020F4473020F44070C7F810052002D7F8D5
:103BDC0010E500F4F85040EA0C4040EA0E00C7F83B
:103BEC001005CCE7D3E900672046FFF7CBFE002E8B
:103BFC00CFD0114DD5E90023964203D19F4201D17C
:103C0C00002209E00F480DF10F01FFF725FD0C4BC9
:103C1C009842BFD19DF80F2045F83260E4B205EB15
:103C2C00C20308345F6035F8143043EA422343F48E
:103C3C00807325F81430ACE7F40400200400AD0BBD
:103C4C000000AD0B4C0500202DE9FF4107460C464A
:103C5C001E4612B3CDB2DFF8D080083538F81530D7
:103C6C00980701D4990621D413F01C0F02D0537875
:103C7C00012B1BD001238DF80F300023CDE900233D
:103C8C000DF10F01931C2046013203F0E3FB38F8D1
:103C9C00153043F0030328F81530002E42D0E1B262
:103CAC00214D083135F81120930703D41F4804B077
:103CBC00BDE8F08196F800E0D7F800C022F02002B1
:103CCC000EF5A270D2040023D20C4CF8203025F84B
:103CDC00112096F801C0BCF1000F23D03868B678DB
:103CEC0000EB8E004FEA0C4CD0F8103523F49813EF
:103CFC0023F4F853C0F81035230203F4F8530CF4F2
:103D0C00403C3605D0F8107543EA0C0306F48016D7
:103D1C0042EA4E32334342F020023B4325F8112055
:103D2C00C0F810350248C2E7F40400200400AD0BC3
:103D3C000000AD0B014BC3E902127047F4040020E4
:103D4C00C9B20831044B33F81130990643BF5B0BF1
:103D5C000248137002487047F40400200000AD0BB9
:103D6C000400AD0B70B5164D95F8604006462CBBA3
:103D7C002146402205F1100003F0A8FE30682E6D9C
:103D8C0021468E420ED10023C0F87C31D0F87C3114
:103D9C0040F30730FEF77EF901230A4885F86030BE
:103DAC00AB6570BDCBB29B0003F580727C2B08BF5A
:103DBC00845001F1010108BF8358E2E70248F0E7A3
:103DCC00F40400200000AD0B0C00AD0B034B93F87A
:103DDC006000003818BF0120704700BFF4040020B9
:103DEC000148FFF75DBC00BF480500200148FFF704
:103DFC0033BC00BF4805002073B503680C46D3F8EC
:103E0C0004130029A4BF4FF00041C3F80413E3B21C
:103E1C001D49083331F8133099061AD513F00206F0
:103E2C0017D15B0B9C00056804F580716E506958C6
:103E3C0001682144D1F8104544F00104C1F8104543
:103E4C002AB10168012202FA03F3C1F8043302B06B
:103E5C0070BDC3F38203042B12D0052B12D001A822
:103E6C00019403F0EDFA019AD0F81035D34003F029
:103E7C000103991C204602B0BDE8704003F033BB2F
:103E8C000321F7E70221F5E7F40400202DE9F347BD
:103E9C00544B554FD3F80403396DC0B240F0004079
:103EAC00FFF79AFD051E18DA0023F96D009368469A
:103EBC0003F028FB4FF0010897F85C30DA075AD46E
:103ECC00396D4FF00040FFF787FDF96D684603F040
:103EDC0019FB0028F0D125F000450124002D69D1F3
:103EEC0002B0BDE8F08794FAA4F4B4FA84F4E008C4
:103EFC0004F1080304F0070237F813901DF80030A2
:103F0C00019408FA02F223EA02030DF8003001A82A
:103F1C0003F096FA019B03F5E0734FEA990150F810
:103F2C002360C9F3820A4B07D146C6F3014626D556
:103F3C0020465146FFF708FD01A8019403F080FAD2
:103F4C00019B03F5E073F6B250F82330C3F3014341
:103F5C009E4207D10021204603F0C5FA3146204687
:103F6C0003F0C1FA01A8019403F06AFA019B08FA64
:103F7C0003F3C0F82035009C002CB4D1A0E7022E2E
:103F8C000CD10321204603F0AEFA0AF00503012BF5
:103F9C00E8D149462046FFF7D7FCE3E7022120464B
:103FAC0003F0A1FABAF1030FF3D0032EDAD1BAF170
:103FBC00020FEDE795FAA5F3B3FA83F304FA03F2D3
:103FCC009B0003F1804303F5C04325EA0205D3F8B7
:103FDC001005D3F81015C0F30420C1F30141FFF70D
:103FEC00B3FC7BE700600040F4040020014601486C
:103FFC00FFF732BB5805002008B5124BA822002150
:10400C00184603F063FD032202610F4942610F4A17
:10401C008161C2614FF4806202620022826242625C
:10402C00C26201660A49416610218166094902672C
:10403C000346C266426711F8010D98540132102AEA
:10404C00F9D108BD100400203689000010000020B2
:10405C00000000204F8900002DE9F84FDFF87C802C
:10406C00182606FB008E00FB06664644DEF824404C
:10407C00DEF828C07368A44507468946154603EB4D
:10408C00040022D8DEF820B0ABEB040A0AF1FF33AF
:10409C009A4203D803F00CFD2C440FE063449A427F
:1040AC0019D852462C4403F003FDB4EB0B0405D095
:1040BC007068224609EB0A0103F0FAFC182303FB93
:1040CC00078301205C62BDE8F88F0CF1FF3CACEB80
:1040DC00040C9445DED20020F5E700BF100400204C
:1040EC00034B182202FB00339A6A586A801A7047F5
:1040FC001004002003484FF0FF324FF0FF3300F064
:10410C00B9B900BFA8050020014800F02BBA00BFC8
:10411C00A805002010B50446FDF726F80348044A0C
:10412C00012102F01AFF204603F015FAF87C00007A
:10413C00508900002DE9F843044600AF0D46EFF31B
:10414C001188202383F31288BFF36F8F0428294A28
:10415C0098BF294B9668117C94BF53F82030274B9D
:10416C00E9468AB06A462648C2E9073140F2013373
:10417C009384244BC2E9050442F8103F22480023E3
:10418C004FF43151FDF7D4F8CD4645B1EB69C3F38B
:10419C00080323B11D4A1C48012102F0DEFE2EB19A
:1041AC00304603F025FA08B1037803B91848E946FC
:1041BC008AB06A46174BD061C2E9053640F201332A
:1041CC001384154B42F8103F00230F484FF4115144
:1041DC00FDF7AEF82946CD462046FFF79BFF88F346
:1041EC001188BFF36F8F3046FDF7D8FEBD46BDE892
:1041FC00F88300BF500D00206C8100005F89000027
:10420C007589000005000001F87C00009D89000004
:10421C006D890000BE8900000400000138B5094B0F
:10422C0053F82040013053F82050A54200D838BD37
:10423C00636823B1204603F096F90834F5E7236848
:10424C009847FAE78081000070B52B4B2B4C2C4D16
:10425C00012286B003201A70FFF7E0FF00F0B2FFD6
:10426C0003F09DF90420FFF7D9FF2646AE4204F176
:10427C00300410D300F03AFC204C224EAC4226D332
:10428C0000F048FCFCF796F81F4A137B23F001035F
:10429C00137306B070BD54F80C3C059354F8103CE5
:1042AC00049354F8143C039354F8183C029354F8B8
:1042BC001C3C019354F8203C009354E90A2354E924
:1042CC000C0100F0D5F954F8303C5E65CDE7D4E92B
:1042DC000A23B3F1FF3F08BFB2F1FF3F05D052EA0A
:1042EC000301206803D103F085F93034C6E7314669
:1042FC00183000F0C3FDF8E7990D0020C87C0000D1
:10430C00C87C00002F770000300B002008B5034854
:10431C00034A0021121A03F03EF908BDD005002013
:10432C009C0D002070B5002386B00122CDE904233A
:10433C00134E144D01930F22CDE90232124914236E
:10434C0003FB005506EBC01604464FF4C07000FB8F
:10435C0004110E4B00954FF4A072304600F088F912
:10436C00737B0B4AEE6023F0040373734FF4046306
:10437C0004FB033313442C746B6006B070BD00BF98
:10438C00B00A0020500D002040190020AD7500002F
:10439C0000110020BFB50020FFF740FF2D4B83F329
:1043AC0008882D4D2D4E6B692D4F43F400736B61B6
:1043BC000024E02385F82230EC772C766C76AC76F2
:1043CC0085F820406B6A43F4E0236B6285F8234048
:1043DC00FDF7B6FDFDF70AFF4FF0FF33AB62EB6262
:1043EC00FDF7DEFFFDF726FFFCF72AFE1D4BB36041
:1043FC0040F201129A81C3E91844DC6603F09FF87D
:10440C000120FFF70BFF0220174DFFF707FF00F00D
:10441C00A1FB164B75610593012315490094CDE959
:10442C0003434FF480623B46CDE90144284600F03B
:10443C001FF96A7B064622F0040228466A7303F0D1
:10444C0015F92046FFF76EFF3A4631462846FDF730
:10445C00ABFE00BF4019002000ED00E0500D002025
:10446C0055420000B00B0020300B0020208A0000C9
:10447C00C01A00202DE9F341044617461E46EFF3FF
:10448C001188202383F31288BFF36F8FC368334ADC
:10449C007BB180689168884219D057EA060318D11D
:1044AC0088F31188BFF36F8F6FF00F0002B0BDE877
:1044BC00F081916891F90E1021610133E3609368EA
:1044CC00A36088F31188BFF36F8F0020EEE721699A
:1044DC00F2E791F90E1090F90E309942A8BF1946E7
:1044EC006FF07E029142B8BF11468B422DDD03F076
:1044FC0062F80546CDE9007619482246414600F09F
:10450C0041FA0028E1D0EFF31186202383F31288BF
:10451C00BFF36F8FA068D0B1236821699C420AD089
:10452C004BB193F90E309942A8BF19466FF07E0338
:10453C009942B8BF194603F03EF840B108483146DD
:10454C0000F090FA6FF00A00B0E70025D2E7002DDA
:10455C00F4D186F31188BFF36F8FF3E7500D002071
:10456C009A0D002038B58368044663B3194A9268E3
:10457C0093422BD1C368012B03D9013BC3600020AC
:10458C0038BDEFF31185202383F31288BFF36F8FAF
:10459C000169806803F00FF8204603F0DCF8A06096
:1045AC0058B190F90E2022610022826703F05EF868
:1045BC000948294600F056FAE1E7E06085F31188D6
:1045CC00BFF36F8FDBE76FF01500D9E74FF0FF30CB
:1045DC00D6E700BF500D00209A0D002038B50446D8
:1045EC00EFF31185202383F31288BFF36F8F03F051
:1045FC00B2F848B10022826703F038F8294608481F
:10460C00BDE8384000F02EBAD4E902329A4218BF05
:10461C000133A36085F31188BFF36F8F38BD00BFE2
:10462C009A0D002013B5EFF31181202484F3128826
:10463C00BFF36F8F846844B1013C846081F31188AF
:10464C00BFF36F8F002002B010BD52EA030406D1F5
:10465C0081F31188BFF36F8F6FF00F00F3E7CDE993
:10466C0000230246014800F08DF9ECE79A0D00207A
:10467C002DE9F043073285B022F007020E461F46A3
:10468C001099017300F158037F32C0E916330446C8
:10469C00002322F03F020421836041733F2A0F98CC
:1046AC00A073C4E90633E37306F14009A2F1400894
:1046BC0005D883F31188BFF36F8F084602DFB51856
:1046CC0029462046FDF7E0F907300E9B20F0070045
:1046DC00A066C4E9189802930D9B01932D1A0C9BAC
:1046EC0000932A463B4631462046FDF72BFD00231E
:1046FC006365044B9B6803B1DB6EE366284605B02B
:10470C00BDE8F083500D0020F0B587B0002505956D
:10471C00109D04950F9D03950E9D0295DDE9127673
:10472C000D9D01950C9D00950446FFF7A1FFB6F178
:10473C00FF3F08BFB7F1FF3F05D056EA070305D18D
:10474C00204600F0A1F9204607B0F0BD03493A46D7
:10475C00334604F1180000F091FBF4E72F770000CA
:10476C0038B50D4D2B4653F8184F9C4200D004B968
:10477C00EC68AB6838B95A7BD20604D1A26912B97D
:10478C00DA897F2A05D89C4202D0204600F0BEFA76
:10479C0023466B6138BD00BF500D002008B590F961
:1047AC000D20437B002A014604DA03F07F03437398
:1047BC0002F022FF044B9868431A58425841BDE856
:1047CC000840FFF7CDBF00BF500D002070B490F92A
:1047DC000D30427B002B29DBD30627D183692BBB01
:1047EC00134962F07F0242730A4652F8184F944202
:1047FC0018BF2346CC6923B9C0E900242060C861E6
:10480C000CE090F90E5093F90E60B5420AD0AE420E
:10481C0008DD5A68C0E900321060586070BC002096
:10482C00FFF79EBF9C42E7D01B68E4E770BC704763
:10483C00500D00202DE9F041002A427B0E460CBFA2
:10484C0010210821114204460FD141EA0203D2097A
:10485C0018D1437308291BD00120FFF781FFBFF348
:10486C005F8F637B23F060036373274B9B68A342CA
:10487C0043D1EFF30583002B3FD13046BDE8F04127
:10488C00FDF7A2BB03F07F03437302F0B5FEE1E733
:10489C00A36813B1204602F0B7FE04F1180002F031
:1048AC0097FFA56D04F15807AF4211D04FF00008E7
:1048BC0075B1284602F0A8FE05F1180002F088FF39
:1048CC00C5F878802846FFF781FFA56DAF42EFD180
:1048DC000D4DAB689C42BFD1EFF30583002BBBD0D1
:1048EC000120FFF73DFF094BAB6040F201129A81AA
:1048FC000022C3E91822DA66B1E786F31188BFF308
:10490C006F8FBDE8F08100BF500D0020B00B002070
:10491C0070B590F90D20437B002A014604DA03F0B0
:10492C007F03437302F068FE4B7B154A63F07F03F1
:10493C0010464B7350F8183FD469834208BF0023CC
:10494C0023B9C1E900042160D1610CE091F90E504A
:10495C0093F90E60B5420ED0AE420CDD5868C1E939
:10496C000030016059609068431A5842BDE87040AD
:10497C005841FFF7F5BE9C42E3D01B68E0E700BF4F
:10498C00500D0020F8B5124B0C461146114A986890
:10499C001060DDE90676EFF31182202282F3128893
:1049AC00BFF36F8F9D68284602F038FEB6F1FF3FCB
:1049BC0008BFB7F1FF3F06D007493A46334605F129
:1049CC00180000F05BFA2046BDE8F840FDF7FCBA91
:1049DC00500D0020700D00202F770000F8B5044614
:1049EC00EFF31186202383F31288BFF36F8F437B81
:1049FC00DA0649B219D18569BDB903F07F03437357
:104A0C0002F0FAFD437B164A817363F07F03437314
:104A1C00134653F8180F984218BF0546D0695DB974
:104A2C00C4E900300460D46111E0A173002086F366
:104A3C001188BFF36F8FF8BD95F90E70B9420BD08A
:104A4C008F4209DD6B68C4E900531C606C60012067
:104A5C00FFF786FE0120EAE7A842E1D02D68DEE7E9
:104A6C00500D002049B9EFF3058030B9054B5A6958
:104A7C009B689A4201D0FDF7A7BA81F31188BFF366
:104A8C006F8F7047500D002010B5EFF3118420226A
:104A9C0082F31288BFF36F8F427B510704D484F3E7
:104AAC001188BFF36F8F10BD22F004024273FFF721
:104ABC008DFE21460248BDE81040FFF7D3BF00BF72
:104ACC009A0D0020034648B9EFF3058232B9064A25
:104ADC0051699268914201D0FDF776BA83F311883F
:104AEC00BFF36F8F704700BF500D0020EFF31181A3
:104AFC00202383F31288BFF36F8F054B9A68D37B07
:104B0C00013BD37381F31188BFF36F8F704700BFE4
:104B1C00500D002038B5EFF31185202484F3128852
:104B2C00BFF36F8F0A4B9A68D37B0133D37300208A
:104B3C00FFF716FE85F31188BFF36F8FEFF311802B
:104B4C0084F31288BFF36F8FBDE83840FFF7BABF0C
:104B5C00500D0020024B03F11802C3E906227047E6
:104B6C00500D0020F8B5EFF31185202383F3128844
:104B7C00BFF36F8F19498868437B03F07F0343733E
:104B8C0002F03AFD8B685A7B084662F07F025A733A
:104B9C0050F8182FCC69824208BF002222B9C3E911
:104BAC0000042360CB610CE093F90E6092F90E7057
:104BBC00BE420ED0B7420CDD5168C3E900210B6038
:104BCC0053600120FFF7CCFD2846BDE8F840FDF707
:104BDC00FBB9A242E3D01268E0E700BF500D002001
:104BEC0050EA01032DE9F04105460E4603D1FFF7CB
:104BFC00B9FF00202BE0831C71F1FF3329DB02F09D
:104C0C00FCFD2C18EFF31188202383F31288BFF3DB
:104C1C006F8F124F124BB8681860FFF7BFFDB86862
:104C2C0010492A463346183000F028F9BA68537BED
:104C3C0043F0100353734046FDF7C6F902F0DDFD57
:104C4C00201A63EB0303012873F10003D1DBBDE8E9
:104C5C00F0816FF00104241AD4E700BF500D00203E
:104C6C00700D00202F770000B1F1FF3F08BFB0F1AD
:104C7C00FF3F08B506D10A4B986802F006FD4FF0CD
:104C8C00FF3008BDFFF7ACFF4FF47A7147F6FF73A6
:104C9C000022C0FB0132D80B40EA4240F1E700BFD2
:104CAC00500D0020014B9868704700BF500D00203C
:104CBC00044BC01A044BC0105843044B01221A5425
:104CCC00704700BF300C0020ABAAAAAA9A0D002096
:104CDC00C3897F2B12D80A4B1B6863B1094B90F91F
:104CEC000E201B689A4209DB437BDB0606D1064B80
:104CFC00C31A18BF012303F0010070470023FAE721
:104D0C00780D0020740D0020B00A002070B50E4BF9
:104D1C000E4C1E7C06EB460304EBC30405462046F2
:104D2C0002F056FD0A4B002228469A55FFF7D0FF99
:104D3C0048B1084B08491A68013A2046D317BDE818
:104D4C00704000F09BB870BD500D0020300C00205E
:104D5C009A0D0020780D0020BD4C000038B5EFF303
:104D6C001185202383F31288BFF36F8F104B114AE8
:104D7C009C681068A04206D1FFF7C8FF85F3118824
:104D8C00BFF36F8F38BD00211B7C11600A4AD35CC6
:104D9C00002BF3D02046FFF79BFF0028EED0637B5F
:104DAC00DB0602D12046FFF7B3FD2046E4E700BF47
:104DBC00500D0020700D00209A0D002008B50648FB
:104DCC00064A0749121A02F0E8FBBDE80840054AFA
:104DDC000549064802F0E1BBC0040020CC050020C8
:104DEC00788B000000000000708B0000C0040020D5
:104DFC00034B1B680BB9FEF7CDBA0020704700BF00
:104E0C007C0D002030B570B10B4B5B6898420AD01A
:104E1C00036843B1D3E90421D0E90445121941EBED
:104E2C000501C3E90421D0E9003213605A60002364
:104E3C00C0E9003330BD00BF5C05002010B50E4B3F
:104E4C001C689C4204D1FFF7D3FF6FF0004010BDEB
:104E5C00FFF7CEFF002CF8D0D4E904321B1A62EB1A
:104E6C00E072B3F1004F72F10001EEDA002AACBF30
:104E7C0018460020EBE700BF5C050020B3F1FF3FB4
:104E8C0008BFB2F1FF3FF8B504461D4616465ED08A
:104E9C008160EFF31187202383F31288BFF36F8FA8
:104EAC00013275F1FF3324DA2E49D1E900206FF07D
:104EBC0001039B1A4FF0FF3262EB00009E1B60EB6C
:104ECC000500012E70F1000301DA01260020C4E96F
:104EDC000460254ED6F800C07568B44508BF4FF085
:104EEC00000CBCF1000F0DD1C4E900652C6074609E
:104EFC001CE0FFF77DFF013645F10005361845EB48
:104F0C00E070E4E7DCE90420D4E90431934271EB6E
:104F1C00000E1DDAD21ADCF8043060EB0100CCE98B
:104F2C000420C4E900C31C60CCF804403368B342CD
:104F3C0009D09C4207D10D4B1C6824B9FFF77EFFAA
:104F4C002146FEF7F9F987F31188BFF36F8FF8BD8F
:104F5C009B1A61EB0001AC45C4E90431C4D0DCF808
:104F6C0000C0BEE7480C00205C0500207C0D002032
:104F7C002DE9F84FEFF3118C202383F31288BFF344
:104F8C006F8FDFF8B0A0DFF8B0902C4FC9F800009D
:104F9C00DAF800000024504508BF00200025D7E9AE
:104FAC000021D9F80030E04678B3D0E9046C4FEA20
:104FBC00E37EB3427EEB0C0B05DAF61A6CEB0E04B7
:104FCC00C0E9046421E0B21841EBE671C0E9044584
:104FDC00C7E90021FFF716FF88F31188BFF36F8F25
:104FEC0083689847EFF31188202383F31288BFF36B
:104FFC006F8FD9F80030DAF800009B1B5045C4467F
:10500C00C9F80030CBD1D7E900219A1841EBE373F2
:10501C000024C7E90023C9F80040FFF70FFF214621
:10502C00FEF78AF988F31188BFF36F8FBDE8F84F4C
:10503C00FFF794BE5C0500207C0D0020480C00207E
:10504C0010B5EFF31184202383F31288BFF36F8F15
:10505C00FFF7CEFE054A0346D2E90001181841EBD2
:10506C00E37184F31188BFF36F8F10BD480C0020DF
:10507C00F8B50446EFF31187202383F31288BFF3AE
:10508C006F8F026822B187F31188BFF36F8FF8BD61
:10509C00D0E90A36581C46F10001022871F10001D2
:1050AC0027D3012B76F10001BCBF012316465D1EF0
:1050BC0046F1FF3602F0A5FB013041F10001401929
:1050CC0046EB0101012871F1000139DB02F099FB7B
:1050DC00013041F100016FF00102401946EB010370
:1050EC00121A4FF0FF3161EB030318492046FFF70A
:1050FC00C5FE236B01332363236A6BB187F31188DD
:10510C00BFF36F8F236A20469847EFF31187202354
:10511C0083F31288BFF36F8F54F8185FA542B2D097
:10512C00002DB0D0284602F0CAFA0023AB6787F3F3
:10513C001188BFF36F8F2846BDE8F84002F096BA8D
:10514C006FF001024FF0FF33CFE700BF7D5000003E
:10515C002DE9F04105461C4690461F46EFF311869B
:10516C00202383F31288BFF36F8FB4F1FF3F08BF86
:10517C00B2F1FF3F05D186F31188BFF36F8FBDE805
:10518C00F081531C74F1FF3309DB012A74F1000325
:10519C00BCBF0122002412F1FF3844F1FF3728462E
:1051AC0002F016FBDDE906010023C5E90A012B63B9
:1051BC00034942463B462846FFF760FEDBE700BF4B
:1051CC007D500000014801F0F7BA00BF288A0000AA
:1051DC000FB407B5064B04AA186852F8041B0192C9
:1051EC0000F0D0F803B05DF804EB04B0704700BFDA
:1051FC00A08000000CB430B589B005460C461C22CA
:10520C00002101A802F062FC02238DF806300E4B3F
:10521C000293059523462CB1B4F1004F28BF4FF0F3
:10522C000043013B1D440DAA0C99069501A8009260
:10523C0000F0A8F814B1059B00221A7009B0BDE863
:10524C00304002B0704700BFE97A00002DE9F04110
:10525C0001260746B24201DCBDE8F0813B461F4601
:10526C0013F8014B002CF7D0252CF8D11C78252CE9
:10527C0007F10207F2D00023DFF804819C461D469B
:10528C001F2D18D8A4F1200EBEF1100F09D9A4F1CE
:10529C00300EBEF1090F1ED80A2404FB03E32025AF
:1052AC0004E028FA0EFE1EF0010F06D017F8014B91
:1052BC00002CE5D128E07F2D1CD8A4F1300EBEF1D6
:1052CC00090FE9D9242C10D1BCF1000F46D0B34200
:1052DC0046D00023EAE724F0040EBEF12A0FF8D0E2
:1052EC006C2C09D145F08005E0E724F0040EBEF1EA
:1052FC002A0FEED06C2C22D06C2C1BD8682C23D00F
:10530C006A2C28D04C2C26D0BCF1000FA4D0B4456C
:10531C00A0D144F02007A7F1650CBCF1020F0B687B
:10532C0001D9612F1ED1073323F0070308330B601B
:10533C0001368EE7742CB9D07A2CB7D0E4E72C0662
:10534C0048BF45F40075CDE7EC0548BF45F4007542
:10535C0045F48075AAE745F42075A7E79C46B8E7A5
:10536C006324D6E7692C02D007D8632C03D02F0610
:10537C0001D5AC05D7D40433D9E7732CF6E700BFBD
:10538C00892801002DE9F04F95B043680393837889
:10539C009B07CDE90A12804611D50D920B460026CB
:1053AC001F7877B1252F10D001330993039B414609
:1053BC0038469847002806F1010680F22E854FF0FA
:1053CC00FF36304615B0BDE8F08F5F789A1C252F5C
:1053DC000992EBD000242546A246A346BBF11F0F31
:1053EC0032D8A7F12003102B0AD8DFE803F02409E8
:1053FC00092A0909091B09090922092709091900A0
:10540C00A7F13003092B2DD92A2F39D154B90D9B73
:10541C001BF0400F53F8042B0D9329D0154601E0D7
:10542C004BF0010B099B13F8017B0993002FD5D18D
:10543C0056E04BF0020B4BF0040BF3E74BF0080B70
:10544C00F0E74BF0100BEDE7BBF17F0F3FD8A7F166
:10545C003003092BD8D81BF0400F03D00A2202FBD3
:10546C000535DFE70A2202FB0A3A4BF0200BD9E79D
:10547C00B2F1000AF9DACAF1000A4BF0280BD1E7B5
:10548C002E2F05D11BF0400F9BD14BF0400BC9E7E1
:10549C00242F1CD1002C00F08A800B9B0D931BF049
:1054AC00400F0AD152460A980DA9FFF7CFFE0D9B6B
:1054BC001A1DD3F800A00D92B4E72A460A980DA93C
:1054CC00FFF7C4FE0D9B1A1D1D680D92AAE76C2FE9
:1054DC005AD052D8682F5FD06A2F65D04C2F63D02A
:1054EC0034B10B9B0A980D9322460DA9FFF7AEFE23
:1054FC00002D47F02003B8BF2BF0400B0793A3F10E
:10550C006503BCBF1FFA8BFB0025022B54D947F057
:10551C002003612B40F06383FF4307F020030893C3
:10552C000D9B073323F0070303F108020D924BF494
:10553C00C05204921A6805925A68DDF814C0C2F37E
:10554C000A57C2F3130047EA0C0353EA000401465E
:10555C000BF040044FEAD27259D13027D2B28DF8F9
:10556C003D708DF83C20A7B2002C00F0BF810C2DB3
:10557C004FF000075DDD0D25B2E0742F3FF452AF04
:10558C007A2F3FF44FAFABE71BF0800F18BF4BF4F3
:10559C00007B4BF0800B45E71BF4807F18BF4BF46E
:1055AC00007B4BF4807B3DE74BF4207B3AE72546B0
:1055BC00AB465446AA4635E7FF4307F02003089351
:1055CC000D9B073323F0070303F10802D3E9000115
:1055DC00079B0D921BF0400F08BF0625652B40F072
:1055EC0099816B1C0022DBB24BF4805B1446112BAF
:1055FC00CDE9002428BF11230EAA00F0ADFCC3B2E4
:10560C00059302230E9FCDF810B0069380E0002F77
:10561C0000F03B813123D2B28DF83D30A7F2FF3739
:10562C008DF83C20A3B2002C00F057810C2D00F318
:10563C005681C5F10D018900012301F1FF39A1F15A
:10564C002104C1F1210E23FA0EFE03FA04F403FA2D
:10565C0009F344EA0E0413EB030E44EB0409DEF1E8
:10566C00000BCDF818B069EB490BCDF81CB0DDF888
:10567C0014B01EF1FF3E49F1FF390EEA0B0E09EA98
:10568C000009734574EB090912DBC1F12009B1F172
:10569C00200E00FA09F92BFA01F141EA09015CBF6D
:1056AC0040FA0EFE41EA0E0111F0010F00F0F080FD
:1056BC000599CB1840EB0400B0F5801F9C46C0F256
:1056CC00E7809DF83D10B7F5806F01F101018DF871
:1056DC003D1000F0E980069A07991A4013460140E4
:1056EC00089A0D20C2F1570403F00F021B0943EA7C
:1056FC0001730911002A40F0FE80854280F2FD8082
:10570C000138F1D10E230120CDE905307023079328
:10571C0007F10902122A3B4600F2D1809DF83CB0F9
:10572C000BF00C091BF0010B40F02D81049B9A0728
:10573C0000F1238113F0040400F00281B9F1000F91
:10574C0040F027814FF02009049B13F4405F23D1D4
:10575C00059B5033002D6B4408BF0125133B059A64
:10576C0022B113F8012D302A00F04781049B13F06D
:10577C00100F059B18BF2B46381DC0F24381BD424C
:10578C0040F34081049A42F4005292B2BB4204921C
:10579C0040F33A817D1C5D1B049B13F4005B00F00D
:1057AC00358127EAE7740134B9F1000F00D00134D8
:1057BC00002D00F034816B1C1C44049BA245CCBF13
:1057CC00AAEB0404002413F0090F04D13444A642BC
:1057DC0040F02A810024B9F1000F08D0039B414608
:1057EC0048469847002806F10106FFF6E8AD049BF1
:1057FC001A0513D5039B4146302098470028FFF625
:10580C00DEAD089BC3F178004146039B00F0F80025
:10581C009847002806F10206FFF6D1AD049B1B0742
:10582C0005D43444B44240F0098126460024BBF12F
:10583C00000F00F0348127EAE77AA7EB0A0B6D42E0
:10584C00059B5B4584BF0EAB5B440AF1FF3A8CBFF2
:10585C0058793020554506F1010900F3F980039B76
:10586C004146984700280BF1010BFFF6A8ADBAF1A1
:10587C00FF3F08D1039B41462E2098470028FFF696
:10588C009EAD06F102094E46DAE730230127C2E647
:10589C00069B03EA0C0C079B03401846B7F5806F78
:1058AC0026D15CEA00001CD042F008028DF83C20A6
:1058BC004FF480670E230593702307933B4603F147
:1058CC006302C62A3AD903F2E73340F2CE7293420E
:1058DC008CBF04230323069320E71D46DEE70D252A
:1058EC00DCE742F004028DF83C20E3E73D46F7E6A6
:1058FC0063460146F4E6092A09D830320DF1380C1A
:10590C00844485428CF80520B8BF0546F8E622444D
:10591C00D2B2F3E7079B662B05D14BF4005B2C4608
:10592C000122112363E6EBB2012B4FF000024FF082
:10593C00650738BF01231446079758E60223CAE7C8
:10594C00B9F1000F3FF400AFBAF1030F34DD049B43
:10595C001F07AAF103042FD43444039B4146202093
:10596C009847002806F10106FFF629ADA642F4D1AE
:10597C00BBF1000F36D0002415E0B9F1000F2BD18C
:10598C004FF02B09E0E6B9F1000F28D14FF02D09AB
:10599C00DAE64FF0200BBAF1040FECDD049B1D0787
:1059AC00AAF10404D8D5039B4146584698470028D1
:1059BC0006F10106FFF603AD9DF83C309F4D13F048
:1059CC00080F9F4B08BF1D462F46B94617F8010B11
:1059DC0050B9751BA9445DE04FF02B0BDBE74FF082
:1059EC002D0BD8E75C46E7E7089BC01A4146039BA2
:1059FC00C0B298470028E8DAE1E4059A013AD2B23D
:105A0C000592ACE65D1EC7E60025C5E6049B13F4C3
:105A1C00006F069B0CBF032405241C44C4E6049BA6
:105A2C00D90648BF0134C8E6039B4146202098475D
:105A3C00002806F10106BFF6CAAEC0E4039B41463E
:105A4C0030209847002806F10106BFF6EBAEB6E40D
:105A5C00BA450AD19DF83D30352B1ED805D19DF89D
:105A6C003C3013F0100F08BF3120039B4146984780
:105A7C000028FFF6A4AC049BD8060BD5BAF1FF3F67
:105A8C0008D106F1020941462E20039B98470028B5
:105A9C00FFF695AC4E464C4446E23120E5E79DF8C6
:105AAC003D0031281EBF9DF83C3023F010038DF8CB
:105ABC003C304146039B98470028FFF680AC002DF4
:105ACC006DDD039B41462E209847002806F1020904
